{
  "contractName": "Youtube",
  "abi": [
    {
      "anonymous": false,
      "inputs": [
        {
          "indexed": false,
          "internalType": "address",
          "name": "walletId",
          "type": "address"
        }
      ],
      "name": "CreateUser",
      "type": "event"
    },
    {
      "anonymous": false,
      "inputs": [
        {
          "indexed": false,
          "internalType": "address",
          "name": "walletId",
          "type": "address"
        }
      ],
      "name": "UpdateUser",
      "type": "event"
    },
    {
      "anonymous": false,
      "inputs": [
        {
          "indexed": false,
          "internalType": "uint256",
          "name": "id",
          "type": "uint256"
        }
      ],
      "name": "VideoUploaded",
      "type": "event"
    },
    {
      "inputs": [
        {
          "internalType": "uint256",
          "name": "",
          "type": "uint256"
        }
      ],
      "name": "users",
      "outputs": [
        {
          "internalType": "uint256",
          "name": "id",
          "type": "uint256"
        },
        {
          "internalType": "string",
          "name": "username",
          "type": "string"
        },
        {
          "internalType": "string",
          "name": "channelName",
          "type": "string"
        },
        {
          "internalType": "string",
          "name": "coverImage",
          "type": "string"
        },
        {
          "internalType": "string",
          "name": "profileImage",
          "type": "string"
        },
        {
          "internalType": "address",
          "name": "walletId",
          "type": "address"
        }
      ],
      "stateMutability": "view",
      "type": "function",
      "constant": true
    },
    {
      "inputs": [
        {
          "internalType": "uint256",
          "name": "",
          "type": "uint256"
        }
      ],
      "name": "videos",
      "outputs": [
        {
          "internalType": "address",
          "name": "owner",
          "type": "address"
        },
        {
          "internalType": "uint256",
          "name": "id",
          "type": "uint256"
        },
        {
          "internalType": "string",
          "name": "uuid",
          "type": "string"
        },
        {
          "internalType": "string",
          "name": "title",
          "type": "string"
        },
        {
          "internalType": "string",
          "name": "description",
          "type": "string"
        },
        {
          "internalType": "uint256",
          "name": "views",
          "type": "uint256"
        },
        {
          "internalType": "bool",
          "name": "isDeleted",
          "type": "bool"
        },
        {
          "internalType": "string",
          "name": "username",
          "type": "string"
        },
        {
          "internalType": "string",
          "name": "channelName",
          "type": "string"
        },
        {
          "internalType": "string",
          "name": "profileImage",
          "type": "string"
        }
      ],
      "stateMutability": "view",
      "type": "function",
      "constant": true
    },
    {
      "inputs": [],
      "name": "getMyProfile",
      "outputs": [
        {
          "components": [
            {
              "internalType": "uint256",
              "name": "id",
              "type": "uint256"
            },
            {
              "internalType": "string",
              "name": "username",
              "type": "string"
            },
            {
              "internalType": "string",
              "name": "channelName",
              "type": "string"
            },
            {
              "internalType": "string",
              "name": "coverImage",
              "type": "string"
            },
            {
              "internalType": "string",
              "name": "profileImage",
              "type": "string"
            },
            {
              "internalType": "address",
              "name": "walletId",
              "type": "address"
            },
            {
              "internalType": "address[]",
              "name": "subscribers",
              "type": "address[]"
            }
          ],
          "internalType": "struct Youtube.User",
          "name": "",
          "type": "tuple"
        }
      ],
      "stateMutability": "view",
      "type": "function",
      "constant": true
    },
    {
      "inputs": [
        {
          "internalType": "address",
          "name": "userAddress",
          "type": "address"
        }
      ],
      "name": "getUserProfile",
      "outputs": [
        {
          "components": [
            {
              "internalType": "uint256",
              "name": "id",
              "type": "uint256"
            },
            {
              "internalType": "string",
              "name": "username",
              "type": "string"
            },
            {
              "internalType": "string",
              "name": "channelName",
              "type": "string"
            },
            {
              "internalType": "string",
              "name": "coverImage",
              "type": "string"
            },
            {
              "internalType": "string",
              "name": "profileImage",
              "type": "string"
            },
            {
              "internalType": "address",
              "name": "walletId",
              "type": "address"
            },
            {
              "internalType": "address[]",
              "name": "subscribers",
              "type": "address[]"
            }
          ],
          "internalType": "struct Youtube.User",
          "name": "",
          "type": "tuple"
        }
      ],
      "stateMutability": "view",
      "type": "function",
      "constant": true
    },
    {
      "inputs": [
        {
          "internalType": "string",
          "name": "uuid",
          "type": "string"
        },
        {
          "internalType": "string",
          "name": "title",
          "type": "string"
        },
        {
          "internalType": "string[]",
          "name": "cids",
          "type": "string[]"
        },
        {
          "internalType": "string",
          "name": "description",
          "type": "string"
        }
      ],
      "name": "uploadVideo",
      "outputs": [],
      "stateMutability": "nonpayable",
      "type": "function"
    },
    {
      "inputs": [
        {
          "internalType": "string",
          "name": "username",
          "type": "string"
        },
        {
          "internalType": "string",
          "name": "channelName",
          "type": "string"
        },
        {
          "internalType": "string",
          "name": "profileImg",
          "type": "string"
        },
        {
          "internalType": "string",
          "name": "coverImg",
          "type": "string"
        }
      ],
      "name": "createUser",
      "outputs": [],
      "stateMutability": "nonpayable",
      "type": "function"
    },
    {
      "inputs": [
        {
          "internalType": "string",
          "name": "username",
          "type": "string"
        },
        {
          "internalType": "string",
          "name": "channelName",
          "type": "string"
        },
        {
          "internalType": "string",
          "name": "profileImg",
          "type": "string"
        },
        {
          "internalType": "string",
          "name": "coverImg",
          "type": "string"
        },
        {
          "internalType": "address",
          "name": "walletId",
          "type": "address"
        }
      ],
      "name": "updateUser",
      "outputs": [],
      "stateMutability": "nonpayable",
      "type": "function"
    },
    {
      "inputs": [
        {
          "internalType": "string",
          "name": "channelName",
          "type": "string"
        }
      ],
      "name": "isChannelNameExist",
      "outputs": [
        {
          "internalType": "bool",
          "name": "isExist",
          "type": "bool"
        }
      ],
      "stateMutability": "view",
      "type": "function",
      "constant": true
    },
    {
      "inputs": [
        {
          "internalType": "uint256",
          "name": "userId",
          "type": "uint256"
        }
      ],
      "name": "addSubscribe",
      "outputs": [],
      "stateMutability": "nonpayable",
      "type": "function"
    },
    {
      "inputs": [
        {
          "internalType": "string",
          "name": "uuid",
          "type": "string"
        }
      ],
      "name": "deleteVideo",
      "outputs": [],
      "stateMutability": "nonpayable",
      "type": "function"
    },
    {
      "inputs": [],
      "name": "getAllVideos",
      "outputs": [
        {
          "components": [
            {
              "internalType": "address",
              "name": "owner",
              "type": "address"
            },
            {
              "internalType": "uint256",
              "name": "id",
              "type": "uint256"
            },
            {
              "internalType": "string",
              "name": "uuid",
              "type": "string"
            },
            {
              "internalType": "string",
              "name": "title",
              "type": "string"
            },
            {
              "internalType": "string[]",
              "name": "cids",
              "type": "string[]"
            },
            {
              "internalType": "string",
              "name": "description",
              "type": "string"
            },
            {
              "internalType": "uint256",
              "name": "views",
              "type": "uint256"
            },
            {
              "internalType": "address[]",
              "name": "likes",
              "type": "address[]"
            },
            {
              "internalType": "address[]",
              "name": "dislikes",
              "type": "address[]"
            },
            {
              "internalType": "bool",
              "name": "isDeleted",
              "type": "bool"
            },
            {
              "internalType": "string",
              "name": "username",
              "type": "string"
            },
            {
              "internalType": "string",
              "name": "channelName",
              "type": "string"
            },
            {
              "internalType": "string",
              "name": "profileImage",
              "type": "string"
            }
          ],
          "internalType": "struct Youtube.Video[]",
          "name": "",
          "type": "tuple[]"
        }
      ],
      "stateMutability": "view",
      "type": "function",
      "constant": true
    },
    {
      "inputs": [
        {
          "internalType": "string",
          "name": "uuid",
          "type": "string"
        }
      ],
      "name": "getVideoByUuid",
      "outputs": [
        {
          "components": [
            {
              "internalType": "address",
              "name": "owner",
              "type": "address"
            },
            {
              "internalType": "uint256",
              "name": "id",
              "type": "uint256"
            },
            {
              "internalType": "string",
              "name": "uuid",
              "type": "string"
            },
            {
              "internalType": "string",
              "name": "title",
              "type": "string"
            },
            {
              "internalType": "string[]",
              "name": "cids",
              "type": "string[]"
            },
            {
              "internalType": "string",
              "name": "description",
              "type": "string"
            },
            {
              "internalType": "uint256",
              "name": "views",
              "type": "uint256"
            },
            {
              "internalType": "address[]",
              "name": "likes",
              "type": "address[]"
            },
            {
              "internalType": "address[]",
              "name": "dislikes",
              "type": "address[]"
            },
            {
              "internalType": "bool",
              "name": "isDeleted",
              "type": "bool"
            },
            {
              "internalType": "string",
              "name": "username",
              "type": "string"
            },
            {
              "internalType": "string",
              "name": "channelName",
              "type": "string"
            },
            {
              "internalType": "string",
              "name": "profileImage",
              "type": "string"
            }
          ],
          "internalType": "struct Youtube.Video",
          "name": "",
          "type": "tuple"
        }
      ],
      "stateMutability": "view",
      "type": "function",
      "constant": true
    },
    {
      "inputs": [
        {
          "internalType": "uint256",
          "name": "videoId",
          "type": "uint256"
        },
        {
          "internalType": "string",
          "name": "title",
          "type": "string"
        },
        {
          "internalType": "string",
          "name": "description",
          "type": "string"
        }
      ],
      "name": "updateVideo",
      "outputs": [],
      "stateMutability": "nonpayable",
      "type": "function"
    },
    {
      "inputs": [
        {
          "internalType": "uint256",
          "name": "id",
          "type": "uint256"
        }
      ],
      "name": "addViews",
      "outputs": [
        {
          "internalType": "bool",
          "name": "result",
          "type": "bool"
        }
      ],
      "stateMutability": "nonpayable",
      "type": "function"
    },
    {
      "inputs": [
        {
          "internalType": "uint256",
          "name": "id",
          "type": "uint256"
        }
      ],
      "name": "addLikes",
      "outputs": [
        {
          "components": [
            {
              "internalType": "address",
              "name": "owner",
              "type": "address"
            },
            {
              "internalType": "uint256",
              "name": "id",
              "type": "uint256"
            },
            {
              "internalType": "string",
              "name": "uuid",
              "type": "string"
            },
            {
              "internalType": "string",
              "name": "title",
              "type": "string"
            },
            {
              "internalType": "string[]",
              "name": "cids",
              "type": "string[]"
            },
            {
              "internalType": "string",
              "name": "description",
              "type": "string"
            },
            {
              "internalType": "uint256",
              "name": "views",
              "type": "uint256"
            },
            {
              "internalType": "address[]",
              "name": "likes",
              "type": "address[]"
            },
            {
              "internalType": "address[]",
              "name": "dislikes",
              "type": "address[]"
            },
            {
              "internalType": "bool",
              "name": "isDeleted",
              "type": "bool"
            },
            {
              "internalType": "string",
              "name": "username",
              "type": "string"
            },
            {
              "internalType": "string",
              "name": "channelName",
              "type": "string"
            },
            {
              "internalType": "string",
              "name": "profileImage",
              "type": "string"
            }
          ],
          "internalType": "struct Youtube.Video",
          "name": "result",
          "type": "tuple"
        }
      ],
      "stateMutability": "nonpayable",
      "type": "function"
    },
    {
      "inputs": [
        {
          "internalType": "uint256",
          "name": "id",
          "type": "uint256"
        }
      ],
      "name": "addDisLikes",
      "outputs": [
        {
          "components": [
            {
              "internalType": "address",
              "name": "owner",
              "type": "address"
            },
            {
              "internalType": "uint256",
              "name": "id",
              "type": "uint256"
            },
            {
              "internalType": "string",
              "name": "uuid",
              "type": "string"
            },
            {
              "internalType": "string",
              "name": "title",
              "type": "string"
            },
            {
              "internalType": "string[]",
              "name": "cids",
              "type": "string[]"
            },
            {
              "internalType": "string",
              "name": "description",
              "type": "string"
            },
            {
              "internalType": "uint256",
              "name": "views",
              "type": "uint256"
            },
            {
              "internalType": "address[]",
              "name": "likes",
              "type": "address[]"
            },
            {
              "internalType": "address[]",
              "name": "dislikes",
              "type": "address[]"
            },
            {
              "internalType": "bool",
              "name": "isDeleted",
              "type": "bool"
            },
            {
              "internalType": "string",
              "name": "username",
              "type": "string"
            },
            {
              "internalType": "string",
              "name": "channelName",
              "type": "string"
            },
            {
              "internalType": "string",
              "name": "profileImage",
              "type": "string"
            }
          ],
          "internalType": "struct Youtube.Video",
          "name": "result",
          "type": "tuple"
        }
      ],
      "stateMutability": "nonpayable",
      "type": "function"
    }
  ],
  "bytecode": "0x608060405234801561001057600080fd5b50615109806100206000396000f3fe608060405234801561001057600080fd5b50600436106101005760003560e01c80638ee6f1ad11610097578063c38e343411610066578063c38e3434146102d4578063c7553b43146102f2578063e55e0a7c1461030e578063e6821bf51461033e57610100565b80638ee6f1ad1461023c5780639766790f1461026c578063987ee15614610288578063ba04e670146102b857610100565b8063365b98b2116100d3578063365b98b21461018b5780636f7fcddb146101c05780637eebf5d1146101dc5780637fe0af141461020c57610100565b806306d44c54146101055780631b2f168f1461012157806321527e501461013d5780632c2298e71461015b575b600080fd5b61011f600480360381019061011a9190613ea0565b610377565b005b61013b60048036038101906101369190613f89565b61045b565b005b610145610606565b6040516101529190614278565b60405180910390f35b6101756004803603810190610170919061429a565b610a1f565b60405161018291906144f5565b60405180910390f35b6101a560048036038101906101a0919061429a565b6112a6565b6040516101b79695949392919061457f565b60405180910390f35b6101da60048036038101906101d591906145fc565b611532565b005b6101f660048036038101906101f1919061429a565b6116b9565b60405161020391906146e2565b60405180910390f35b610226600480360381019061022191906146fd565b61171f565b60405161023391906146e2565b60405180910390f35b6102566004803603810190610251919061429a565b6117a3565b60405161026391906144f5565b60405180910390f35b610286600480360381019061028191906146fd565b61202a565b005b6102a2600480360381019061029d9190614746565b6120e3565b6040516102af9190614278565b60405180910390f35b6102d260048036038101906102cd919061429a565b6124fe565b005b6102dc612673565b6040516102e99190614986565b60405180910390f35b61030c60048036038101906103079190614a8e565b612dd7565b005b610328600480360381019061032391906146fd565b61303a565b60405161033591906144f5565b60405180910390f35b6103586004803603810190610353919061429a565b613718565b60405161036e9a99989796959493929190614b65565b60405180910390f35b3373ffffffffffffffffffffffffffffffffffffffff16600084815481106103a2576103a1614c2b565b5b90600052602060002090600d020160000160009054906101000a900473ffffffffffffffffffffffffffffffffffffffff1673ffffffffffffffffffffffffffffffffffffffff160361045657816000848154811061040457610403614c2b565b5b90600052602060002090600d020160030190816104219190614e66565b50806000848154811061043757610436614c2b565b5b90600052602060002090600d020160050190816104549190614e66565b505b505050565b60005b6001805490508110156105c7578173ffffffffffffffffffffffffffffffffffffffff166001828154811061049657610495614c2b565b5b906000526020600020906007020160050160009054906101000a900473ffffffffffffffffffffffffffffffffffffffff1673ffffffffffffffffffffffffffffffffffffffff16036105b45785600182815481106104f8576104f7614c2b565b5b906000526020600020906007020160010190816105159190614e66565b50846001828154811061052b5761052a614c2b565b5b906000526020600020906007020160020190816105489190614e66565b50836001828154811061055e5761055d614c2b565b5b9060005260206000209060070201600401908161057b9190614e66565b50826001828154811061059157610590614c2b565b5b906000526020600020906007020160030190816105ae9190614e66565b506105c7565b80806105bf90614f67565b91505061045e565b507f2546b90e6eb3815c1dc83f637ecf7eee80eb147db72648f81c4826967ea308b7816040516105f79190614faf565b60405180910390a15050505050565b61060e613ad9565b610616613ad9565b60005b600180549050811015610a17573373ffffffffffffffffffffffffffffffffffffffff166001828154811061065157610650614c2b565b5b906000526020600020906007020160050160009054906101000a900473ffffffffffffffffffffffffffffffffffffffff1673ffffffffffffffffffffffffffffffffffffffff1603610a0457600181815481106106b2576106b1614c2b565b5b90600052602060002090600702016040518060e0016040529081600082015481526020016001820180546106e590614c89565b80601f016020809104026020016040519081016040528092919081815260200182805461071190614c89565b801561075e5780601f106107335761010080835404028352916020019161075e565b820191906000526020600020905b81548152906001019060200180831161074157829003601f168201915b5050505050815260200160028201805461077790614c89565b80601f01602080910402602001604051908101604052809291908181526020018280546107a390614c89565b80156107f05780601f106107c5576101008083540402835291602001916107f0565b820191906000526020600020905b8154815290600101906020018083116107d357829003601f168201915b5050505050815260200160038201805461080990614c89565b80601f016020809104026020016040519081016040528092919081815260200182805461083590614c89565b80156108825780601f1061085757610100808354040283529160200191610882565b820191906000526020600020905b81548152906001019060200180831161086557829003601f168201915b5050505050815260200160048201805461089b90614c89565b80601f01602080910402602001604051908101604052809291908181526020018280546108c790614c89565b80156109145780601f106108e957610100808354040283529160200191610914565b820191906000526020600020905b8154815290600101906020018083116108f757829003601f168201915b505050505081526020016005820160009054906101000a900473ffffffffffffffffffffffffffffffffffffffff1673ffffffffffffffffffffffffffffffffffffffff1673ffffffffffffffffffffffffffffffffffffffff168152602001600682018054806020026020016040519081016040528092919081815260200182805480156109f857602002820191906000526020600020905b8160009054906101000a900473ffffffffffffffffffffffffffffffffffffffff1673ffffffffffffffffffffffffffffffffffffffff16815260200190600101908083116109ae575b50505050508152505091505b8080610a0f90614f67565b915050610619565b508091505090565b610a27613b2c565b6000805b60008481548110610a3f57610a3e614c2b565b5b90600052602060002090600d020160070180549050811015610b0b573373ffffffffffffffffffffffffffffffffffffffff1660008581548110610a8657610a85614c2b565b5b90600052602060002090600d02016007018281548110610aa957610aa8614c2b565b5b9060005260206000200160009054906101000a900473ffffffffffffffffffffffffffffffffffffffff1673ffffffffffffffffffffffffffffffffffffffff1603610af85760019150610b0b565b8080610b0390614f67565b915050610a2b565b5060006001905081610bfc5760005b60008581548110610b2e57610b2d614c2b565b5b90600052602060002090600d020160070180549050811015610bfa573373ffffffffffffffffffffffffffffffffffffffff1660008681548110610b7557610b74614c2b565b5b90600052602060002090600d02016007018281548110610b9857610b97614c2b565b5b9060005260206000200160009054906101000a900473ffffffffffffffffffffffffffffffffffffffff1673ffffffffffffffffffffffffffffffffffffffff1603610be75760009150610bfa565b8080610bf290614f67565b915050610b1a565b505b8015610c895760008481548110610c1657610c15614c2b565b5b90600052602060002090600d0201600801339080600181540180825580915050600190039060005260206000200160009091909190916101000a81548173ffffffffffffffffffffffffffffffffffffffff021916908373ffffffffffffffffffffffffffffffffffffffff1602179055505b60008481548110610c9d57610c9c614c2b565b5b90600052602060002090600d0201604051806101a00160405290816000820160009054906101000a900473ffffffffffffffffffffffffffffffffffffffff1673ffffffffffffffffffffffffffffffffffffffff1673ffffffffffffffffffffffffffffffffffffffff16815260200160018201548152602001600282018054610d2790614c89565b80601f0160208091040260200160405190810160405280929190818152602001828054610d5390614c89565b8015610da05780601f10610d7557610100808354040283529160200191610da0565b820191906000526020600020905b815481529060010190602001808311610d8357829003601f168201915b50505050508152602001600382018054610db990614c89565b80601f0160208091040260200160405190810160405280929190818152602001828054610de590614c89565b8015610e325780601f10610e0757610100808354040283529160200191610e32565b820191906000526020600020905b815481529060010190602001808311610e1557829003601f168201915b5050505050815260200160048201805480602002602001604051908101604052809291908181526020016000905b82821015610f0c578382906000526020600020018054610e7f90614c89565b80601f0160208091040260200160405190810160405280929190818152602001828054610eab90614c89565b8015610ef85780601f10610ecd57610100808354040283529160200191610ef8565b820191906000526020600020905b815481529060010190602001808311610edb57829003601f168201915b505050505081526020019060010190610e60565b505050508152602001600582018054610f2490614c89565b80601f0160208091040260200160405190810160405280929190818152602001828054610f5090614c89565b8015610f9d5780601f10610f7257610100808354040283529160200191610f9d565b820191906000526020600020905b815481529060010190602001808311610f8057829003601f168201915b50505050508152602001600682015481526020016007820180548060200260200160405190810160405280929190818152602001828054801561103557602002820191906000526020600020905b8160009054906101000a900473ffffffffffffffffffffffffffffffffffffffff1673ffffffffffffffffffffffffffffffffffffffff1681526020019060010190808311610feb575b50505050508152602001600882018054806020026020016040519081016040528092919081815260200182805480156110c357602002820191906000526020600020905b8160009054906101000a900473ffffffffffffffffffffffffffffffffffffffff1673ffffffffffffffffffffffffffffffffffffffff1681526020019060010190808311611079575b505050505081526020016009820160009054906101000a900460ff16151515158152602001600a820180546110f790614c89565b80601f016020809104026020016040519081016040528092919081815260200182805461112390614c89565b80156111705780601f1061114557610100808354040283529160200191611170565b820191906000526020600020905b81548152906001019060200180831161115357829003601f168201915b50505050508152602001600b8201805461118990614c89565b80601f01602080910402602001604051908101604052809291908181526020018280546111b590614c89565b80156112025780601f106111d757610100808354040283529160200191611202565b820191906000526020600020905b8154815290600101906020018083116111e557829003601f168201915b50505050508152602001600c8201805461121b90614c89565b80601f016020809104026020016040519081016040528092919081815260200182805461124790614c89565b80156112945780601f1061126957610100808354040283529160200191611294565b820191906000526020600020905b81548152906001019060200180831161127757829003601f168201915b50505050508152505092505050919050565b600181815481106112b657600080fd5b90600052602060002090600702016000915090508060000154908060010180546112df90614c89565b80601f016020809104026020016040519081016040528092919081815260200182805461130b90614c89565b80156113585780601f1061132d57610100808354040283529160200191611358565b820191906000526020600020905b81548152906001019060200180831161133b57829003601f168201915b50505050509080600201805461136d90614c89565b80601f016020809104026020016040519081016040528092919081815260200182805461139990614c89565b80156113e65780601f106113bb576101008083540402835291602001916113e6565b820191906000526020600020905b8154815290600101906020018083116113c957829003601f168201915b5050505050908060030180546113fb90614c89565b80601f016020809104026020016040519081016040528092919081815260200182805461142790614c89565b80156114745780601f1061144957610100808354040283529160200191611474565b820191906000526020600020905b81548152906001019060200180831161145757829003601f168201915b50505050509080600401805461148990614c89565b80601f01602080910402602001604051908101604052809291908181526020018280546114b590614c89565b80156115025780601f106114d757610100808354040283529160200191611502565b820191906000526020600020905b8154815290600101906020018083116114e557829003601f168201915b5050505050908060050160009054906101000a900473ffffffffffffffffffffffffffffffffffffffff16905086565b60006001805490509050606060016040518060e001604052808481526020018881526020018781526020018581526020018681526020013373ffffffffffffffffffffffffffffffffffffffff1681526020018381525090806001815401808255809150506001900390600052602060002090600702016000909190919091506000820151816000015560208201518160010190816115d19190614e66565b5060408201518160020190816115e79190614e66565b5060608201518160030190816115fd9190614e66565b5060808201518160040190816116139190614e66565b5060a08201518160050160006101000a81548173ffffffffffffffffffffffffffffffffffffffff021916908373ffffffffffffffffffffffffffffffffffffffff16021790555060c0820151816006019080519060200190611677929190613bac565b5050507fdf54227b669e96e69d8f583a07d577cb4081ab69c78dbcff8fce5af67e1ac546336040516116a99190614faf565b60405180910390a1505050505050565b60006001600083815481106116d1576116d0614c2b565b5b90600052602060002090600d0201600601546116ed9190614fca565b6000838154811061170157611700614c2b565b5b90600052602060002090600d02016006018190555060019050919050565b6000806000905060005b6001805490508110156117995783805190602001206001828154811061175257611751614c2b565b5b906000526020600020906007020160020160405161177091906150a1565b6040518091039020036117865760019150611799565b808061179190614f67565b915050611729565b5080915050919050565b6117ab613b2c565b6000805b600084815481106117c3576117c2614c2b565b5b90600052602060002090600d02016008018054905081101561188f573373ffffffffffffffffffffffffffffffffffffffff166000858154811061180a57611809614c2b565b5b90600052602060002090600d0201600801828154811061182d5761182c614c2b565b5b9060005260206000200160009054906101000a900473ffffffffffffffffffffffffffffffffffffffff1673ffffffffffffffffffffffffffffffffffffffff160361187c576001915061188f565b808061188790614f67565b9150506117af565b50600060019050816119805760005b600085815481106118b2576118b1614c2b565b5b90600052602060002090600d02016007018054905081101561197e573373ffffffffffffffffffffffffffffffffffffffff16600086815481106118f9576118f8614c2b565b5b90600052602060002090600d0201600701828154811061191c5761191b614c2b565b5b9060005260206000200160009054906101000a900473ffffffffffffffffffffffffffffffffffffffff1673ffffffffffffffffffffffffffffffffffffffff160361196b576000915061197e565b808061197690614f67565b91505061189e565b505b8015611a0d576000848154811061199a57611999614c2b565b5b90600052602060002090600d0201600701339080600181540180825580915050600190039060005260206000200160009091909190916101000a81548173ffffffffffffffffffffffffffffffffffffffff021916908373ffffffffffffffffffffffffffffffffffffffff1602179055505b60008481548110611a2157611a20614c2b565b5b90600052602060002090600d0201604051806101a00160405290816000820160009054906101000a900473ffffffffffffffffffffffffffffffffffffffff1673ffffffffffffffffffffffffffffffffffffffff1673ffffffffffffffffffffffffffffffffffffffff16815260200160018201548152602001600282018054611aab90614c89565b80601f0160208091040260200160405190810160405280929190818152602001828054611ad790614c89565b8015611b245780601f10611af957610100808354040283529160200191611b24565b820191906000526020600020905b815481529060010190602001808311611b0757829003601f168201915b50505050508152602001600382018054611b3d90614c89565b80601f0160208091040260200160405190810160405280929190818152602001828054611b6990614c89565b8015611bb65780601f10611b8b57610100808354040283529160200191611bb6565b820191906000526020600020905b815481529060010190602001808311611b9957829003601f168201915b5050505050815260200160048201805480602002602001604051908101604052809291908181526020016000905b82821015611c90578382906000526020600020018054611c0390614c89565b80601f0160208091040260200160405190810160405280929190818152602001828054611c2f90614c89565b8015611c7c5780601f10611c5157610100808354040283529160200191611c7c565b820191906000526020600020905b815481529060010190602001808311611c5f57829003601f168201915b505050505081526020019060010190611be4565b505050508152602001600582018054611ca890614c89565b80601f0160208091040260200160405190810160405280929190818152602001828054611cd490614c89565b8015611d215780601f10611cf657610100808354040283529160200191611d21565b820191906000526020600020905b815481529060010190602001808311611d0457829003601f168201915b505050505081526020016006820154815260200160078201805480602002602001604051908101604052809291908181526020018280548015611db957602002820191906000526020600020905b8160009054906101000a900473ffffffffffffffffffffffffffffffffffffffff1673ffffffffffffffffffffffffffffffffffffffff1681526020019060010190808311611d6f575b5050505050815260200160088201805480602002602001604051908101604052809291908181526020018280548015611e4757602002820191906000526020600020905b8160009054906101000a900473ffffffffffffffffffffffffffffffffffffffff1673ffffffffffffffffffffffffffffffffffffffff1681526020019060010190808311611dfd575b505050505081526020016009820160009054906101000a900460ff16151515158152602001600a82018054611e7b90614c89565b80601f0160208091040260200160405190810160405280929190818152602001828054611ea790614c89565b8015611ef45780601f10611ec957610100808354040283529160200191611ef4565b820191906000526020600020905b815481529060010190602001808311611ed757829003601f168201915b50505050508152602001600b82018054611f0d90614c89565b80601f0160208091040260200160405190810160405280929190818152602001828054611f3990614c89565b8015611f865780601f10611f5b57610100808354040283529160200191611f86565b820191906000526020600020905b815481529060010190602001808311611f6957829003601f168201915b50505050508152602001600c82018054611f9f90614c89565b80601f0160208091040260200160405190810160405280929190818152602001828054611fcb90614c89565b80156120185780601f10611fed57610100808354040283529160200191612018565b820191906000526020600020905b815481529060010190602001808311611ffb57829003601f168201915b50505050508152505092505050919050565b60005b6000805490508110156120df57600082805190602001206000838154811061205857612057614c2b565b5b90600052602060002090600d020160020160405161207691906150a1565b604051809103902014905080156120cb5760016000838154811061209d5761209c614c2b565b5b90600052602060002090600d020160090160006101000a81548160ff021916908315150217905550506120df565b5080806120d790614f67565b91505061202d565b5050565b6120eb613ad9565b6120f3613ad9565b60005b6001805490508110156124f4578373ffffffffffffffffffffffffffffffffffffffff166001828154811061212e5761212d614c2b565b5b906000526020600020906007020160050160009054906101000a900473ffffffffffffffffffffffffffffffffffffffff1673ffffffffffffffffffffffffffffffffffffffff16036124e1576001818154811061218f5761218e614c2b565b5b90600052602060002090600702016040518060e0016040529081600082015481526020016001820180546121c290614c89565b80601f01602080910402602001604051908101604052809291908181526020018280546121ee90614c89565b801561223b5780601f106122105761010080835404028352916020019161223b565b820191906000526020600020905b81548152906001019060200180831161221e57829003601f168201915b5050505050815260200160028201805461225490614c89565b80601f016020809104026020016040519081016040528092919081815260200182805461228090614c89565b80156122cd5780601f106122a2576101008083540402835291602001916122cd565b820191906000526020600020905b8154815290600101906020018083116122b057829003601f168201915b505050505081526020016003820180546122e690614c89565b80601f016020809104026020016040519081016040528092919081815260200182805461231290614c89565b801561235f5780601f106123345761010080835404028352916020019161235f565b820191906000526020600020905b81548152906001019060200180831161234257829003601f168201915b5050505050815260200160048201805461237890614c89565b80601f01602080910402602001604051908101604052809291908181526020018280546123a490614c89565b80156123f15780601f106123c6576101008083540402835291602001916123f1565b820191906000526020600020905b8154815290600101906020018083116123d457829003601f168201915b505050505081526020016005820160009054906101000a900473ffffffffffffffffffffffffffffffffffffffff1673ffffffffffffffffffffffffffffffffffffffff1673ffffffffffffffffffffffffffffffffffffffff168152602001600682018054806020026020016040519081016040528092919081815260200182805480156124d557602002820191906000526020600020905b8160009054906101000a900473ffffffffffffffffffffffffffffffffffffffff1673ffffffffffffffffffffffffffffffffffffffff168152602001906001019080831161248b575b50505050508152505091505b80806124ec90614f67565b9150506120f6565b5080915050919050565b6000805b6001838154811061251657612515614c2b565b5b9060005260206000209060070201600601805490508110156125e2573373ffffffffffffffffffffffffffffffffffffffff166001848154811061255d5761255c614c2b565b5b906000526020600020906007020160060182815481106125805761257f614c2b565b5b9060005260206000200160009054906101000a900473ffffffffffffffffffffffffffffffffffffffff1673ffffffffffffffffffffffffffffffffffffffff16036125cf57600191506125e2565b80806125da90614f67565b915050612502565b508061266f57600182815481106125fc576125fb614c2b565b5b9060005260206000209060070201600601339080600181540180825580915050600190039060005260206000200160009091909190916101000a81548173ffffffffffffffffffffffffffffffffffffffff021916908373ffffffffffffffffffffffffffffffffffffffff1602179055505b5050565b60606000805b6000805490508110156126e657600015156000828154811061269e5761269d614c2b565b5b90600052602060002090600d020160090160009054906101000a900460ff161515036126d35781806126cf90614f67565b9250505b80806126de90614f67565b915050612679565b5060008167ffffffffffffffff81111561270357612702613d75565b5b60405190808252806020026020018201604052801561273c57816020015b612729613b2c565b8152602001906001900390816127215790505b50905060005b82811015612dce57600015156000828154811061276257612761614c2b565b5b90600052602060002090600d020160090160009054906101000a900460ff16151503612dbb576000818154811061279c5761279b614c2b565b5b90600052602060002090600d0201604051806101a00160405290816000820160009054906101000a900473ffffffffffffffffffffffffffffffffffffffff1673ffffffffffffffffffffffffffffffffffffffff1673ffffffffffffffffffffffffffffffffffffffff1681526020016001820154815260200160028201805461282690614c89565b80601f016020809104026020016040519081016040528092919081815260200182805461285290614c89565b801561289f5780601f106128745761010080835404028352916020019161289f565b820191906000526020600020905b81548152906001019060200180831161288257829003601f168201915b505050505081526020016003820180546128b890614c89565b80601f01602080910402602001604051908101604052809291908181526020018280546128e490614c89565b80156129315780601f1061290657610100808354040283529160200191612931565b820191906000526020600020905b81548152906001019060200180831161291457829003601f168201915b5050505050815260200160048201805480602002602001604051908101604052809291908181526020016000905b82821015612a0b57838290600052602060002001805461297e90614c89565b80601f01602080910402602001604051908101604052809291908181526020018280546129aa90614c89565b80156129f75780601f106129cc576101008083540402835291602001916129f7565b820191906000526020600020905b8154815290600101906020018083116129da57829003601f168201915b50505050508152602001906001019061295f565b505050508152602001600582018054612a2390614c89565b80601f0160208091040260200160405190810160405280929190818152602001828054612a4f90614c89565b8015612a9c5780601f10612a7157610100808354040283529160200191612a9c565b820191906000526020600020905b815481529060010190602001808311612a7f57829003601f168201915b505050505081526020016006820154815260200160078201805480602002602001604051908101604052809291908181526020018280548015612b3457602002820191906000526020600020905b8160009054906101000a900473ffffffffffffffffffffffffffffffffffffffff1673ffffffffffffffffffffffffffffffffffffffff1681526020019060010190808311612aea575b5050505050815260200160088201805480602002602001604051908101604052809291908181526020018280548015612bc257602002820191906000526020600020905b8160009054906101000a900473ffffffffffffffffffffffffffffffffffffffff1673ffffffffffffffffffffffffffffffffffffffff1681526020019060010190808311612b78575b505050505081526020016009820160009054906101000a900460ff16151515158152602001600a82018054612bf690614c89565b80601f0160208091040260200160405190810160405280929190818152602001828054612c2290614c89565b8015612c6f5780601f10612c4457610100808354040283529160200191612c6f565b820191906000526020600020905b815481529060010190602001808311612c5257829003601f168201915b50505050508152602001600b82018054612c8890614c89565b80601f0160208091040260200160405190810160405280929190818152602001828054612cb490614c89565b8015612d015780601f10612cd657610100808354040283529160200191612d01565b820191906000526020600020905b815481529060010190602001808311612ce457829003601f168201915b50505050508152602001600c82018054612d1a90614c89565b80601f0160208091040260200160405190810160405280929190818152602001828054612d4690614c89565b8015612d935780601f10612d6857610100808354040283529160200191612d93565b820191906000526020600020905b815481529060010190602001808311612d7657829003601f168201915b505050505081525050828281518110612daf57612dae614c2b565b5b60200260200101819052505b8080612dc690614f67565b915050612742565b50809250505090565b600080805490509050612de8613ad9565b6060612df2610606565b91506000604051806101a001604052803373ffffffffffffffffffffffffffffffffffffffff168152602001858152602001898152602001888152602001878152602001868152602001600081526020018381526020018381526020016000151581526020018460200151815260200184604001518152602001846080015181525090806001815401808255809150506001900390600052602060002090600d020160009091909190915060008201518160000160006101000a81548173ffffffffffffffffffffffffffffffffffffffff021916908373ffffffffffffffffffffffffffffffffffffffff160217905550602082015181600101556040820151816002019081612f039190614e66565b506060820151816003019081612f199190614e66565b506080820151816004019080519060200190612f36929190613c36565b5060a0820151816005019081612f4c9190614e66565b5060c0820151816006015560e0820151816007019080519060200190612f73929190613bac565b50610100820151816008019080519060200190612f91929190613bac565b506101208201518160090160006101000a81548160ff02191690831515021790555061014082015181600a019081612fc99190614e66565b5061016082015181600b019081612fe09190614e66565b5061018082015181600c019081612ff79190614e66565b5050507fb877fdb9b85387f33c239039316c2d7e95a08b2bcc529faec843cb3801ea41da8360405161302991906150b8565b60405180910390a150505050505050565b613042613b2c565b61304a613b2c565b60005b60008054905081101561370e57600015156000828154811061307257613071614c2b565b5b90600052602060002090600d020160090160009054906101000a900460ff1615151480156130df57508380519060200120600082815481106130b7576130b6614c2b565b5b90600052602060002090600d02016002016040516130d591906150a1565b6040518091039020145b156136fb57600081815481106130f8576130f7614c2b565b5b90600052602060002090600d0201604051806101a00160405290816000820160009054906101000a900473ffffffffffffffffffffffffffffffffffffffff1673ffffffffffffffffffffffffffffffffffffffff1673ffffffffffffffffffffffffffffffffffffffff1681526020016001820154815260200160028201805461318290614c89565b80601f01602080910402602001604051908101604052809291908181526020018280546131ae90614c89565b80156131fb5780601f106131d0576101008083540402835291602001916131fb565b820191906000526020600020905b8154815290600101906020018083116131de57829003601f168201915b5050505050815260200160038201805461321490614c89565b80601f016020809104026020016040519081016040528092919081815260200182805461324090614c89565b801561328d5780601f106132625761010080835404028352916020019161328d565b820191906000526020600020905b81548152906001019060200180831161327057829003601f168201915b5050505050815260200160048201805480602002602001604051908101604052809291908181526020016000905b828210156133675783829060005260206000200180546132da90614c89565b80601f016020809104026020016040519081016040528092919081815260200182805461330690614c89565b80156133535780601f1061332857610100808354040283529160200191613353565b820191906000526020600020905b81548152906001019060200180831161333657829003601f168201915b5050505050815260200190600101906132bb565b50505050815260200160058201805461337f90614c89565b80601f01602080910402602001604051908101604052809291908181526020018280546133ab90614c89565b80156133f85780601f106133cd576101008083540402835291602001916133f8565b820191906000526020600020905b8154815290600101906020018083116133db57829003601f168201915b50505050508152602001600682015481526020016007820180548060200260200160405190810160405280929190818152602001828054801561349057602002820191906000526020600020905b8160009054906101000a900473ffffffffffffffffffffffffffffffffffffffff1673ffffffffffffffffffffffffffffffffffffffff1681526020019060010190808311613446575b505050505081526020016008820180548060200260200160405190810160405280929190818152602001828054801561351e57602002820191906000526020600020905b8160009054906101000a900473ffffffffffffffffffffffffffffffffffffffff1673ffffffffffffffffffffffffffffffffffffffff16815260200190600101908083116134d4575b505050505081526020016009820160009054906101000a900460ff16151515158152602001600a8201805461355290614c89565b80601f016020809104026020016040519081016040528092919081815260200182805461357e90614c89565b80156135cb5780601f106135a0576101008083540402835291602001916135cb565b820191906000526020600020905b8154815290600101906020018083116135ae57829003601f168201915b50505050508152602001600b820180546135e490614c89565b80601f016020809104026020016040519081016040528092919081815260200182805461361090614c89565b801561365d5780601f106136325761010080835404028352916020019161365d565b820191906000526020600020905b81548152906001019060200180831161364057829003601f168201915b50505050508152602001600c8201805461367690614c89565b80601f01602080910402602001604051908101604052809291908181526020018280546136a290614c89565b80156136ef5780601f106136c4576101008083540402835291602001916136ef565b820191906000526020600020905b8154815290600101906020018083116136d257829003601f168201915b50505050508152505091505b808061370690614f67565b91505061304d565b5080915050919050565b6000818154811061372857600080fd5b90600052602060002090600d02016000915090508060000160009054906101000a900473ffffffffffffffffffffffffffffffffffffffff169080600101549080600201805461377790614c89565b80601f01602080910402602001604051908101604052809291908181526020018280546137a390614c89565b80156137f05780601f106137c5576101008083540402835291602001916137f0565b820191906000526020600020905b8154815290600101906020018083116137d357829003601f168201915b50505050509080600301805461380590614c89565b80601f016020809104026020016040519081016040528092919081815260200182805461383190614c89565b801561387e5780601f106138535761010080835404028352916020019161387e565b820191906000526020600020905b81548152906001019060200180831161386157829003601f168201915b50505050509080600501805461389390614c89565b80601f01602080910402602001604051908101604052809291908181526020018280546138bf90614c89565b801561390c5780601f106138e15761010080835404028352916020019161390c565b820191906000526020600020905b8154815290600101906020018083116138ef57829003601f168201915b5050505050908060060154908060090160009054906101000a900460ff169080600a01805461393a90614c89565b80601f016020809104026020016040519081016040528092919081815260200182805461396690614c89565b80156139b35780601f10613988576101008083540402835291602001916139b3565b820191906000526020600020905b81548152906001019060200180831161399657829003601f168201915b50505050509080600b0180546139c890614c89565b80601f01602080910402602001604051908101604052809291908181526020018280546139f490614c89565b8015613a415780601f10613a1657610100808354040283529160200191613a41565b820191906000526020600020905b815481529060010190602001808311613a2457829003601f168201915b50505050509080600c018054613a5690614c89565b80601f0160208091040260200160405190810160405280929190818152602001828054613a8290614c89565b8015613acf5780601f10613aa457610100808354040283529160200191613acf565b820191906000526020600020905b815481529060010190602001808311613ab257829003601f168201915b505050505090508a565b6040518060e001604052806000815260200160608152602001606081526020016060815260200160608152602001600073ffffffffffffffffffffffffffffffffffffffff168152602001606081525090565b604051806101a00160405280600073ffffffffffffffffffffffffffffffffffffffff16815260200160008152602001606081526020016060815260200160608152602001606081526020016000815260200160608152602001606081526020016000151581526020016060815260200160608152602001606081525090565b828054828255906000526020600020908101928215613c25579160200282015b82811115613c245782518260006101000a81548173ffffffffffffffffffffffffffffffffffffffff021916908373ffffffffffffffffffffffffffffffffffffffff16021790555091602001919060010190613bcc565b5b509050613c329190613c8f565b5090565b828054828255906000526020600020908101928215613c7e579160200282015b82811115613c7d578251829081613c6d9190614e66565b5091602001919060010190613c56565b5b509050613c8b9190613cac565b5090565b5b80821115613ca8576000816000905550600101613c90565b5090565b5b80821115613ccc5760008181613cc39190613cd0565b50600101613cad565b5090565b508054613cdc90614c89565b6000825580601f10613cee5750613d0d565b601f016020900490600052602060002090810190613d0c9190613c8f565b5b50565b6000604051905090565b600080fd5b600080fd5b6000819050919050565b613d3781613d24565b8114613d4257600080fd5b50565b600081359050613d5481613d2e565b92915050565b600080fd5b600080fd5b6000601f19601f8301169050919050565b7f4e487b7100000000000000000000000000000000000000000000000000000000600052604160045260246000fd5b613dad82613d64565b810181811067ffffffffffffffff82111715613dcc57613dcb613d75565b5b80604052505050565b6000613ddf613d10565b9050613deb8282613da4565b919050565b600067ffffffffffffffff821115613e0b57613e0a613d75565b5b613e1482613d64565b9050602081019050919050565b82818337600083830152505050565b6000613e43613e3e84613df0565b613dd5565b905082815260208101848484011115613e5f57613e5e613d5f565b5b613e6a848285613e21565b509392505050565b600082601f830112613e8757613e86613d5a565b5b8135613e97848260208601613e30565b91505092915050565b600080600060608486031215613eb957613eb8613d1a565b5b6000613ec786828701613d45565b935050602084013567ffffffffffffffff811115613ee857613ee7613d1f565b5b613ef486828701613e72565b925050604084013567ffffffffffffffff811115613f1557613f14613d1f565b5b613f2186828701613e72565b9150509250925092565b600073ffffffffffffffffffffffffffffffffffffffff82169050919050565b6000613f5682613f2b565b9050919050565b613f6681613f4b565b8114613f7157600080fd5b50565b600081359050613f8381613f5d565b92915050565b600080600080600060a08688031215613fa557613fa4613d1a565b5b600086013567ffffffffffffffff811115613fc357613fc2613d1f565b5b613fcf88828901613e72565b955050602086013567ffffffffffffffff811115613ff057613fef613d1f565b5b613ffc88828901613e72565b945050604086013567ffffffffffffffff81111561401d5761401c613d1f565b5b61402988828901613e72565b935050606086013567ffffffffffffffff81111561404a57614049613d1f565b5b61405688828901613e72565b925050608061406788828901613f74565b9150509295509295909350565b61407d81613d24565b82525050565b600081519050919050565b600082825260208201905092915050565b60005b838110156140bd5780820151818401526020810190506140a2565b60008484015250505050565b60006140d482614083565b6140de818561408e565b93506140ee81856020860161409f565b6140f781613d64565b840191505092915050565b61410b81613f4b565b82525050565b600081519050919050565b600082825260208201905092915050565b6000819050602082019050919050565b60006141498383614102565b60208301905092915050565b6000602082019050919050565b600061416d82614111565b614177818561411c565b93506141828361412d565b8060005b838110156141b357815161419a888261413d565b97506141a583614155565b925050600181019050614186565b5085935050505092915050565b600060e0830160008301516141d86000860182614074565b50602083015184820360208601526141f082826140c9565b9150506040830151848203604086015261420a82826140c9565b9150506060830151848203606086015261422482826140c9565b9150506080830151848203608086015261423e82826140c9565b91505060a083015161425360a0860182614102565b5060c083015184820360c086015261426b8282614162565b9150508091505092915050565b6000602082019050818103600083015261429281846141c0565b905092915050565b6000602082840312156142b0576142af613d1a565b5b60006142be84828501613d45565b91505092915050565b600081519050919050565b600082825260208201905092915050565b6000819050602082019050919050565b60006142ff83836140c9565b905092915050565b6000602082019050919050565b600061431f826142c7565b61432981856142d2565b93508360208202850161433b856142e3565b8060005b85811015614377578484038952815161435885826142f3565b945061436383614307565b925060208a0199505060018101905061433f565b50829750879550505050505092915050565b60008115159050919050565b61439e81614389565b82525050565b60006101a0830160008301516143bd6000860182614102565b5060208301516143d06020860182614074565b50604083015184820360408601526143e882826140c9565b9150506060830151848203606086015261440282826140c9565b9150506080830151848203608086015261441c8282614314565b91505060a083015184820360a086015261443682826140c9565b91505060c083015161444b60c0860182614074565b5060e083015184820360e08601526144638282614162565b91505061010083015184820361010086015261447f8282614162565b915050610120830151614496610120860182614395565b506101408301518482036101408601526144b082826140c9565b9150506101608301518482036101608601526144cc82826140c9565b9150506101808301518482036101808601526144e882826140c9565b9150508091505092915050565b6000602082019050818103600083015261450f81846143a4565b905092915050565b61452081613d24565b82525050565b600082825260208201905092915050565b600061454282614083565b61454c8185614526565b935061455c81856020860161409f565b61456581613d64565b840191505092915050565b61457981613f4b565b82525050565b600060c0820190506145946000830189614517565b81810360208301526145a68188614537565b905081810360408301526145ba8187614537565b905081810360608301526145ce8186614537565b905081810360808301526145e28185614537565b90506145f160a0830184614570565b979650505050505050565b6000806000806080858703121561461657614615613d1a565b5b600085013567ffffffffffffffff81111561463457614633613d1f565b5b61464087828801613e72565b945050602085013567ffffffffffffffff81111561466157614660613d1f565b5b61466d87828801613e72565b935050604085013567ffffffffffffffff81111561468e5761468d613d1f565b5b61469a87828801613e72565b925050606085013567ffffffffffffffff8111156146bb576146ba613d1f565b5b6146c787828801613e72565b91505092959194509250565b6146dc81614389565b82525050565b60006020820190506146f760008301846146d3565b92915050565b60006020828403121561471357614712613d1a565b5b600082013567ffffffffffffffff81111561473157614730613d1f565b5b61473d84828501613e72565b91505092915050565b60006020828403121561475c5761475b613d1a565b5b600061476a84828501613f74565b91505092915050565b600081519050919050565b600082825260208201905092915050565b6000819050602082019050919050565b60006101a0830160008301516147b86000860182614102565b5060208301516147cb6020860182614074565b50604083015184820360408601526147e382826140c9565b915050606083015184820360608601526147fd82826140c9565b915050608083015184820360808601526148178282614314565b91505060a083015184820360a086015261483182826140c9565b91505060c083015161484660c0860182614074565b5060e083015184820360e086015261485e8282614162565b91505061010083015184820361010086015261487a8282614162565b915050610120830151614891610120860182614395565b506101408301518482036101408601526148ab82826140c9565b9150506101608301518482036101608601526148c782826140c9565b9150506101808301518482036101808601526148e382826140c9565b9150508091505092915050565b60006148fc838361479f565b905092915050565b6000602082019050919050565b600061491c82614773565b614926818561477e565b9350836020820285016149388561478f565b8060005b85811015614974578484038952815161495585826148f0565b945061496083614904565b925060208a0199505060018101905061493c565b50829750879550505050505092915050565b600060208201905081810360008301526149a08184614911565b905092915050565b600067ffffffffffffffff8211156149c3576149c2613d75565b5b602082029050602081019050919050565b600080fd5b60006149ec6149e7846149a8565b613dd5565b90508083825260208201905060208402830185811115614a0f57614a0e6149d4565b5b835b81811015614a5657803567ffffffffffffffff811115614a3457614a33613d5a565b5b808601614a418982613e72565b85526020850194505050602081019050614a11565b5050509392505050565b600082601f830112614a7557614a74613d5a565b5b8135614a858482602086016149d9565b91505092915050565b60008060008060808587031215614aa857614aa7613d1a565b5b600085013567ffffffffffffffff811115614ac657614ac5613d1f565b5b614ad287828801613e72565b945050602085013567ffffffffffffffff811115614af357614af2613d1f565b5b614aff87828801613e72565b935050604085013567ffffffffffffffff811115614b2057614b1f613d1f565b5b614b2c87828801614a60565b925050606085013567ffffffffffffffff811115614b4d57614b4c613d1f565b5b614b5987828801613e72565b91505092959194509250565b600061014082019050614b7b600083018d614570565b614b88602083018c614517565b8181036040830152614b9a818b614537565b90508181036060830152614bae818a614537565b90508181036080830152614bc28189614537565b9050614bd160a0830188614517565b614bde60c08301876146d3565b81810360e0830152614bf08186614537565b9050818103610100830152614c058185614537565b9050818103610120830152614c1a8184614537565b90509b9a5050505050505050505050565b7f4e487b7100000000000000000000000000000000000000000000000000000000600052603260045260246000fd5b7f4e487b7100000000000000000000000000000000000000000000000000000000600052602260045260246000fd5b60006002820490506001821680614ca157607f821691505b602082108103614cb457614cb3614c5a565b5b50919050565b60008190508160005260206000209050919050565b60006020601f8301049050919050565b600082821b905092915050565b600060088302614d1c7fffffffffffffffffffffffffffffffffffffffffffffffffffffffffffffffff82614cdf565b614d268683614cdf565b95508019841693508086168417925050509392505050565b6000819050919050565b6000614d63614d5e614d5984613d24565b614d3e565b613d24565b9050919050565b6000819050919050565b614d7d83614d48565b614d91614d8982614d6a565b848454614cec565b825550505050565b600090565b614da6614d99565b614db1818484614d74565b505050565b5b81811015614dd557614dca600082614d9e565b600181019050614db7565b5050565b601f821115614e1a57614deb81614cba565b614df484614ccf565b81016020851015614e03578190505b614e17614e0f85614ccf565b830182614db6565b50505b505050565b600082821c905092915050565b6000614e3d60001984600802614e1f565b1980831691505092915050565b6000614e568383614e2c565b9150826002028217905092915050565b614e6f82614083565b67ffffffffffffffff811115614e8857614e87613d75565b5b614e928254614c89565b614e9d828285614dd9565b600060209050601f831160018114614ed05760008415614ebe578287015190505b614ec88582614e4a565b865550614f30565b601f198416614ede86614cba565b60005b82811015614f0657848901518255600182019150602085019450602081019050614ee1565b86831015614f235784890151614f1f601f891682614e2c565b8355505b6001600288020188555050505b505050505050565b7f4e487b7100000000000000000000000000000000000000000000000000000000600052601160045260246000fd5b6000614f7282613d24565b91507fffffffffffffffffffffffffffffffffffffffffffffffffffffffffffffffff8203614fa457614fa3614f38565b5b600182019050919050565b6000602082019050614fc46000830184614570565b92915050565b6000614fd582613d24565b9150614fe083613d24565b9250828201905080821115614ff857614ff7614f38565b5b92915050565b600081905092915050565b60008190508160005260206000209050919050565b6000815461502b81614c89565b6150358186614ffe565b94506001821660008114615050576001811461506557615098565b60ff1983168652811515820286019350615098565b61506e85615009565b60005b8381101561509057815481890152600182019150602081019050615071565b838801955050505b50505092915050565b60006150ad828461501e565b915081905092915050565b60006020820190506150cd6000830184614517565b9291505056fea26469706673582212200faeb3436e05ad26e88f56dffcc93c91c3199ffd3e1aa51f20b447abd1c2008164736f6c63430008100033",
  "immutableReferences": {},
  "source": "// SPDX-License-Identifier: MIT\npragma solidity ^0.8.4;\n\ncontract Youtube {\n    struct User {\n        uint256 id;\n        string username;\n        string channelName;\n        string coverImage;\n        string profileImage;\n        address walletId;\n        address[] subscribers;\n    }\n\n    struct Video {\n        address owner;\n        uint256 id;\n        string uuid;\n        string title;\n        string[] cids;\n        string description;\n        uint256 views;\n        address[] likes;\n        address[] dislikes;\n        bool isDeleted;\n        string username;\n        string channelName;\n        string profileImage;\n    }\n\n    Video[] public videos;\n    User[] public users;\n\n    mapping(uint256 => address) private videoToOwner;\n\n    event VideoUploaded(uint256 id);\n    event UpdateUser(address walletId);\n    event CreateUser(address walletId);\n\n    function getMyProfile() public view returns (User memory) {\n        User memory userDetails;\n\n        for (uint256 i = 0; i < users.length; i++) {\n            if (users[i].walletId == msg.sender) {\n                userDetails = users[i];\n            }\n        }\n\n        return userDetails;\n    }\n\n    function getUserProfile(address userAddress)\n        public\n        view\n        returns (User memory)\n    {\n        User memory userDetails;\n\n        for (uint256 i = 0; i < users.length; i++) {\n            if (users[i].walletId == userAddress) {\n                userDetails = users[i];\n            }\n        }\n\n        return userDetails;\n    }\n\n    function uploadVideo(\n        string memory uuid,\n        string memory title,\n        string[] memory cids,\n        string memory description\n    ) public {\n        uint256 videoId = videos.length;\n        User memory userDetails;\n        address[] memory emptyAddress;\n\n        userDetails = getMyProfile();\n\n        videos.push(\n            Video(\n                msg.sender,\n                videoId,\n                uuid,\n                title,\n                cids,\n                description,\n                0,\n                emptyAddress,\n                emptyAddress,\n                false,\n                userDetails.username,\n                userDetails.channelName,\n                userDetails.profileImage\n            )\n        );\n\n        emit VideoUploaded(videoId);\n    }\n\n    function createUser(\n        string memory username,\n        string memory channelName,\n        string memory profileImg,\n        string memory coverImg\n    ) external {\n        uint256 userId = users.length;\n        address[] memory emptyAddress;\n\n        users.push(\n            User(\n                userId,\n                username,\n                channelName,\n                coverImg,\n                profileImg,\n                msg.sender,\n                emptyAddress\n            )\n        );\n\n        emit CreateUser(msg.sender);\n    }\n\n    function updateUser(\n        string memory username,\n        string memory channelName,\n        string memory profileImg,\n        string memory coverImg,\n        address walletId\n    ) external {\n        for (uint256 i = 0; i < users.length; i++) {\n            if (users[i].walletId == walletId) {\n                users[i].username = username;\n                users[i].channelName = channelName;\n                users[i].profileImage = profileImg;\n                users[i].coverImage = coverImg;\n\n                break;\n            }\n        }\n\n        emit UpdateUser(walletId);\n    }\n\n    function isChannelNameExist(string memory channelName)\n        public\n        view\n        returns (bool isExist)\n    {\n        bool isChannelExist = false;\n\n        for (uint256 i = 0; i < users.length; i++) {\n            if (\n                keccak256(bytes(users[i].channelName)) ==\n                keccak256(bytes(channelName))\n            ) {\n                isChannelExist = true;\n                break;\n            }\n        }\n\n        return isChannelExist;\n    }\n\n    function addSubscribe(uint256 userId) external {\n        bool isUserAlreadySubscribed = false;\n\n        for (uint256 i = 0; i < users[userId].subscribers.length; i++) {\n            if (users[userId].subscribers[i] == msg.sender) {\n                isUserAlreadySubscribed = true;\n                break;\n            }\n        }\n\n        if (!isUserAlreadySubscribed) {\n            users[userId].subscribers.push(msg.sender);\n        }\n    }\n\n    function deleteVideo(string memory uuid) external {\n        for (uint256 i = 0; i < videos.length; i++) {\n            bool isVideoExist = keccak256(bytes(videos[i].uuid)) ==\n                keccak256(bytes(uuid));\n\n            if (isVideoExist) {\n                videos[i].isDeleted = true;\n                break;\n            }\n        }\n    }\n\n    function getAllVideos() external view returns (Video[] memory) {\n        uint256 counter = 0;\n\n        for (uint256 i = 0; i < videos.length; i++) {\n            if (videos[i].isDeleted == false) {\n                counter++;\n            }\n        }\n\n        Video[] memory allVideos = new Video[](counter);\n\n        for (uint256 i = 0; i < counter; i++) {\n            if (videos[i].isDeleted == false) {\n                allVideos[i] = videos[i];\n            }\n        }\n\n        return allVideos;\n    }\n\n    function getVideoByUuid(string memory uuid)\n        external\n        view\n        returns (Video memory)\n    {\n        Video memory video;\n        for (uint256 i = 0; i < videos.length; i++) {\n            if (\n                videos[i].isDeleted == false &&\n                keccak256(bytes(videos[i].uuid)) == keccak256(bytes(uuid))\n            ) {\n                video = videos[i];\n            }\n        }\n\n        return video;\n    }\n\n    function updateVideo(\n        uint256 videoId,\n        string memory title,\n        string memory description\n    ) external {\n        if (videos[videoId].owner == msg.sender) {\n            videos[videoId].title = title;\n            videos[videoId].description = description;\n        }\n    }\n\n    function addViews(uint256 id) public returns (bool result) {\n        videos[id].views = videos[id].views + 1;\n\n        return true;\n    }\n\n    function addLikes(uint256 id) public returns (Video memory result) {\n        bool isUserDisLikedTheVideo = false;\n\n        for (uint256 i = 0; i < videos[id].dislikes.length; i++) {\n            if (videos[id].dislikes[i] == msg.sender) {\n                isUserDisLikedTheVideo = true;\n                break;\n            }\n        }\n\n        bool isUserAllowedToLike = true;\n\n        if (!isUserDisLikedTheVideo) {\n            for (uint256 i = 0; i < videos[id].likes.length; i++) {\n                if (videos[id].likes[i] == msg.sender) {\n                    isUserAllowedToLike = false;\n                    break;\n                }\n            }\n        }\n\n        if (isUserAllowedToLike) {\n            videos[id].likes.push(msg.sender);\n        }\n\n        return videos[id];\n    }\n\n    function addDisLikes(uint256 id) public returns (Video memory result) {\n        bool isUserLikedTheVideo = false;\n\n        for (uint256 i = 0; i < videos[id].likes.length; i++) {\n            if (videos[id].likes[i] == msg.sender) {\n                isUserLikedTheVideo = true;\n                break;\n            }\n        }\n\n        bool isUserAllowedToDisLike = true;\n\n        if (!isUserLikedTheVideo) {\n            for (uint256 i = 0; i < videos[id].likes.length; i++) {\n                if (videos[id].likes[i] == msg.sender) {\n                    isUserAllowedToDisLike = false;\n                    break;\n                }\n            }\n        }\n\n        if (isUserAllowedToDisLike) {\n            videos[id].dislikes.push(msg.sender);\n        }\n\n        return videos[id];\n    }\n}\n",
  "sourcePath": "C:\\Users\\cocsa\\OneDrive\\Desktop\\Dev Folder\\BlockChain\\youtube_clone\\contracts\\Youtube.sol",
  "compiler": {
    "name": "solc",
    "version": "0.8.16+commit.07a7930e.Emscripten.clang"
  },
  "schemaVersion": "3.4.9",
  "updatedAt": "2022-09-16T13:31:39.259Z",
  "networkType": "ethereum",
  "devdoc": {
    "kind": "dev",
    "methods": {},
    "version": 1
  },
  "userdoc": {
    "kind": "user",
    "methods": {},
    "version": 1
  }
}