{
  "contractName": "Youtube",
  "abi": [
    {
      "anonymous": false,
      "inputs": [
        {
          "indexed": false,
          "internalType": "address",
          "name": "walletId",
          "type": "address"
        }
      ],
      "name": "CreateUser",
      "type": "event"
    },
    {
      "anonymous": false,
      "inputs": [
        {
          "indexed": false,
          "internalType": "address",
          "name": "walletId",
          "type": "address"
        }
      ],
      "name": "UpdateUser",
      "type": "event"
    },
    {
      "anonymous": false,
      "inputs": [
        {
          "indexed": false,
          "internalType": "uint256",
          "name": "id",
          "type": "uint256"
        }
      ],
      "name": "VideoUploaded",
      "type": "event"
    },
    {
      "inputs": [
        {
          "internalType": "uint256",
          "name": "",
          "type": "uint256"
        }
      ],
      "name": "users",
      "outputs": [
        {
          "internalType": "uint256",
          "name": "id",
          "type": "uint256"
        },
        {
          "internalType": "string",
          "name": "username",
          "type": "string"
        },
        {
          "internalType": "string",
          "name": "channelName",
          "type": "string"
        },
        {
          "internalType": "string",
          "name": "coverImage",
          "type": "string"
        },
        {
          "internalType": "string",
          "name": "profileImage",
          "type": "string"
        },
        {
          "internalType": "address",
          "name": "walletId",
          "type": "address"
        }
      ],
      "stateMutability": "view",
      "type": "function",
      "constant": true
    },
    {
      "inputs": [
        {
          "internalType": "uint256",
          "name": "",
          "type": "uint256"
        }
      ],
      "name": "videos",
      "outputs": [
        {
          "internalType": "address",
          "name": "owner",
          "type": "address"
        },
        {
          "internalType": "uint256",
          "name": "id",
          "type": "uint256"
        },
        {
          "internalType": "string",
          "name": "uuid",
          "type": "string"
        },
        {
          "internalType": "string",
          "name": "title",
          "type": "string"
        },
        {
          "internalType": "string",
          "name": "videoUrl",
          "type": "string"
        },
        {
          "internalType": "string",
          "name": "thumbnailUrl",
          "type": "string"
        },
        {
          "internalType": "string",
          "name": "description",
          "type": "string"
        },
        {
          "internalType": "uint256",
          "name": "views",
          "type": "uint256"
        },
        {
          "internalType": "bool",
          "name": "isDeleted",
          "type": "bool"
        },
        {
          "internalType": "string",
          "name": "username",
          "type": "string"
        },
        {
          "internalType": "string",
          "name": "channelName",
          "type": "string"
        },
        {
          "internalType": "string",
          "name": "profileImage",
          "type": "string"
        }
      ],
      "stateMutability": "view",
      "type": "function",
      "constant": true
    },
    {
      "inputs": [],
      "name": "getMyProfile",
      "outputs": [
        {
          "components": [
            {
              "internalType": "uint256",
              "name": "id",
              "type": "uint256"
            },
            {
              "internalType": "string",
              "name": "username",
              "type": "string"
            },
            {
              "internalType": "string",
              "name": "channelName",
              "type": "string"
            },
            {
              "internalType": "string",
              "name": "coverImage",
              "type": "string"
            },
            {
              "internalType": "string",
              "name": "profileImage",
              "type": "string"
            },
            {
              "internalType": "address",
              "name": "walletId",
              "type": "address"
            },
            {
              "internalType": "address[]",
              "name": "subscribers",
              "type": "address[]"
            }
          ],
          "internalType": "struct Youtube.User",
          "name": "",
          "type": "tuple"
        }
      ],
      "stateMutability": "view",
      "type": "function",
      "constant": true
    },
    {
      "inputs": [
        {
          "internalType": "address",
          "name": "userAddress",
          "type": "address"
        }
      ],
      "name": "getUserProfile",
      "outputs": [
        {
          "components": [
            {
              "internalType": "uint256",
              "name": "id",
              "type": "uint256"
            },
            {
              "internalType": "string",
              "name": "username",
              "type": "string"
            },
            {
              "internalType": "string",
              "name": "channelName",
              "type": "string"
            },
            {
              "internalType": "string",
              "name": "coverImage",
              "type": "string"
            },
            {
              "internalType": "string",
              "name": "profileImage",
              "type": "string"
            },
            {
              "internalType": "address",
              "name": "walletId",
              "type": "address"
            },
            {
              "internalType": "address[]",
              "name": "subscribers",
              "type": "address[]"
            }
          ],
          "internalType": "struct Youtube.User",
          "name": "",
          "type": "tuple"
        }
      ],
      "stateMutability": "view",
      "type": "function",
      "constant": true
    },
    {
      "inputs": [
        {
          "internalType": "string",
          "name": "uuid",
          "type": "string"
        },
        {
          "internalType": "string",
          "name": "title",
          "type": "string"
        },
        {
          "internalType": "string",
          "name": "video",
          "type": "string"
        },
        {
          "internalType": "string",
          "name": "thumbnail",
          "type": "string"
        },
        {
          "internalType": "string",
          "name": "description",
          "type": "string"
        }
      ],
      "name": "uploadVideo",
      "outputs": [],
      "stateMutability": "nonpayable",
      "type": "function"
    },
    {
      "inputs": [
        {
          "internalType": "string",
          "name": "username",
          "type": "string"
        },
        {
          "internalType": "string",
          "name": "channelName",
          "type": "string"
        },
        {
          "internalType": "string",
          "name": "profileImg",
          "type": "string"
        },
        {
          "internalType": "string",
          "name": "coverImg",
          "type": "string"
        }
      ],
      "name": "createUser",
      "outputs": [],
      "stateMutability": "nonpayable",
      "type": "function"
    },
    {
      "inputs": [
        {
          "internalType": "string",
          "name": "username",
          "type": "string"
        },
        {
          "internalType": "string",
          "name": "channelName",
          "type": "string"
        },
        {
          "internalType": "string",
          "name": "profileImg",
          "type": "string"
        },
        {
          "internalType": "string",
          "name": "coverImg",
          "type": "string"
        },
        {
          "internalType": "address",
          "name": "walletId",
          "type": "address"
        }
      ],
      "name": "updateUser",
      "outputs": [],
      "stateMutability": "nonpayable",
      "type": "function"
    },
    {
      "inputs": [
        {
          "internalType": "string",
          "name": "channelName",
          "type": "string"
        }
      ],
      "name": "isChannelNameExist",
      "outputs": [
        {
          "internalType": "bool",
          "name": "isExist",
          "type": "bool"
        }
      ],
      "stateMutability": "view",
      "type": "function",
      "constant": true
    },
    {
      "inputs": [
        {
          "internalType": "uint256",
          "name": "userId",
          "type": "uint256"
        }
      ],
      "name": "addSubscribe",
      "outputs": [],
      "stateMutability": "nonpayable",
      "type": "function"
    },
    {
      "inputs": [
        {
          "internalType": "string",
          "name": "uuid",
          "type": "string"
        }
      ],
      "name": "deleteVideo",
      "outputs": [],
      "stateMutability": "nonpayable",
      "type": "function"
    },
    {
      "inputs": [],
      "name": "getAllVideos",
      "outputs": [
        {
          "components": [
            {
              "internalType": "address",
              "name": "owner",
              "type": "address"
            },
            {
              "internalType": "uint256",
              "name": "id",
              "type": "uint256"
            },
            {
              "internalType": "string",
              "name": "uuid",
              "type": "string"
            },
            {
              "internalType": "string",
              "name": "title",
              "type": "string"
            },
            {
              "internalType": "string",
              "name": "videoUrl",
              "type": "string"
            },
            {
              "internalType": "string",
              "name": "thumbnailUrl",
              "type": "string"
            },
            {
              "internalType": "string",
              "name": "description",
              "type": "string"
            },
            {
              "internalType": "uint256",
              "name": "views",
              "type": "uint256"
            },
            {
              "internalType": "address[]",
              "name": "likes",
              "type": "address[]"
            },
            {
              "internalType": "address[]",
              "name": "dislikes",
              "type": "address[]"
            },
            {
              "internalType": "bool",
              "name": "isDeleted",
              "type": "bool"
            },
            {
              "internalType": "string",
              "name": "username",
              "type": "string"
            },
            {
              "internalType": "string",
              "name": "channelName",
              "type": "string"
            },
            {
              "internalType": "string",
              "name": "profileImage",
              "type": "string"
            }
          ],
          "internalType": "struct Youtube.Video[]",
          "name": "",
          "type": "tuple[]"
        }
      ],
      "stateMutability": "view",
      "type": "function",
      "constant": true
    },
    {
      "inputs": [
        {
          "internalType": "string",
          "name": "uuid",
          "type": "string"
        }
      ],
      "name": "getVideoByUuid",
      "outputs": [
        {
          "components": [
            {
              "internalType": "address",
              "name": "owner",
              "type": "address"
            },
            {
              "internalType": "uint256",
              "name": "id",
              "type": "uint256"
            },
            {
              "internalType": "string",
              "name": "uuid",
              "type": "string"
            },
            {
              "internalType": "string",
              "name": "title",
              "type": "string"
            },
            {
              "internalType": "string",
              "name": "videoUrl",
              "type": "string"
            },
            {
              "internalType": "string",
              "name": "thumbnailUrl",
              "type": "string"
            },
            {
              "internalType": "string",
              "name": "description",
              "type": "string"
            },
            {
              "internalType": "uint256",
              "name": "views",
              "type": "uint256"
            },
            {
              "internalType": "address[]",
              "name": "likes",
              "type": "address[]"
            },
            {
              "internalType": "address[]",
              "name": "dislikes",
              "type": "address[]"
            },
            {
              "internalType": "bool",
              "name": "isDeleted",
              "type": "bool"
            },
            {
              "internalType": "string",
              "name": "username",
              "type": "string"
            },
            {
              "internalType": "string",
              "name": "channelName",
              "type": "string"
            },
            {
              "internalType": "string",
              "name": "profileImage",
              "type": "string"
            }
          ],
          "internalType": "struct Youtube.Video",
          "name": "",
          "type": "tuple"
        }
      ],
      "stateMutability": "view",
      "type": "function",
      "constant": true
    },
    {
      "inputs": [
        {
          "internalType": "uint256",
          "name": "videoId",
          "type": "uint256"
        },
        {
          "internalType": "string",
          "name": "title",
          "type": "string"
        },
        {
          "internalType": "string",
          "name": "description",
          "type": "string"
        }
      ],
      "name": "updateVideo",
      "outputs": [],
      "stateMutability": "nonpayable",
      "type": "function"
    },
    {
      "inputs": [
        {
          "internalType": "uint256",
          "name": "id",
          "type": "uint256"
        }
      ],
      "name": "addViews",
      "outputs": [
        {
          "internalType": "bool",
          "name": "result",
          "type": "bool"
        }
      ],
      "stateMutability": "nonpayable",
      "type": "function"
    },
    {
      "inputs": [
        {
          "internalType": "uint256",
          "name": "id",
          "type": "uint256"
        }
      ],
      "name": "addLikes",
      "outputs": [
        {
          "components": [
            {
              "internalType": "address",
              "name": "owner",
              "type": "address"
            },
            {
              "internalType": "uint256",
              "name": "id",
              "type": "uint256"
            },
            {
              "internalType": "string",
              "name": "uuid",
              "type": "string"
            },
            {
              "internalType": "string",
              "name": "title",
              "type": "string"
            },
            {
              "internalType": "string",
              "name": "videoUrl",
              "type": "string"
            },
            {
              "internalType": "string",
              "name": "thumbnailUrl",
              "type": "string"
            },
            {
              "internalType": "string",
              "name": "description",
              "type": "string"
            },
            {
              "internalType": "uint256",
              "name": "views",
              "type": "uint256"
            },
            {
              "internalType": "address[]",
              "name": "likes",
              "type": "address[]"
            },
            {
              "internalType": "address[]",
              "name": "dislikes",
              "type": "address[]"
            },
            {
              "internalType": "bool",
              "name": "isDeleted",
              "type": "bool"
            },
            {
              "internalType": "string",
              "name": "username",
              "type": "string"
            },
            {
              "internalType": "string",
              "name": "channelName",
              "type": "string"
            },
            {
              "internalType": "string",
              "name": "profileImage",
              "type": "string"
            }
          ],
          "internalType": "struct Youtube.Video",
          "name": "result",
          "type": "tuple"
        }
      ],
      "stateMutability": "nonpayable",
      "type": "function"
    },
    {
      "inputs": [
        {
          "internalType": "uint256",
          "name": "id",
          "type": "uint256"
        }
      ],
      "name": "addDisLikes",
      "outputs": [
        {
          "components": [
            {
              "internalType": "address",
              "name": "owner",
              "type": "address"
            },
            {
              "internalType": "uint256",
              "name": "id",
              "type": "uint256"
            },
            {
              "internalType": "string",
              "name": "uuid",
              "type": "string"
            },
            {
              "internalType": "string",
              "name": "title",
              "type": "string"
            },
            {
              "internalType": "string",
              "name": "videoUrl",
              "type": "string"
            },
            {
              "internalType": "string",
              "name": "thumbnailUrl",
              "type": "string"
            },
            {
              "internalType": "string",
              "name": "description",
              "type": "string"
            },
            {
              "internalType": "uint256",
              "name": "views",
              "type": "uint256"
            },
            {
              "internalType": "address[]",
              "name": "likes",
              "type": "address[]"
            },
            {
              "internalType": "address[]",
              "name": "dislikes",
              "type": "address[]"
            },
            {
              "internalType": "bool",
              "name": "isDeleted",
              "type": "bool"
            },
            {
              "internalType": "string",
              "name": "username",
              "type": "string"
            },
            {
              "internalType": "string",
              "name": "channelName",
              "type": "string"
            },
            {
              "internalType": "string",
              "name": "profileImage",
              "type": "string"
            }
          ],
          "internalType": "struct Youtube.Video",
          "name": "result",
          "type": "tuple"
        }
      ],
      "stateMutability": "nonpayable",
      "type": "function"
    }
  ],
  "bytecode": "0x608060405234801561001057600080fd5b506151a0806100206000396000f3fe608060405234801561001057600080fd5b50600436106101005760003560e01c80638ee6f1ad11610097578063ba04e67011610066578063ba04e670146102d4578063c38e3434146102f0578063e55e0a7c1461030e578063e6821bf51461033e57610100565b80638ee6f1ad1461023c5780639766790f1461026c578063987ee1561461028857806398f526e6146102b857610100565b8063365b98b2116100d3578063365b98b21461018b5780636f7fcddb146101c05780637eebf5d1146101dc5780637fe0af141461020c57610100565b806306d44c54146101055780631b2f168f1461012157806321527e501461013d5780632c2298e71461015b575b600080fd5b61011f600480360381019061011a919061404b565b610379565b005b61013b60048036038101906101369190614134565b61045d565b005b610145610608565b6040516101529190614423565b60405180910390f35b61017560048036038101906101709190614445565b610a21565b60405161018291906145fa565b60405180910390f35b6101a560048036038101906101a09190614445565b6112f3565b6040516101b796959493929190614684565b60405180910390f35b6101da60048036038101906101d59190614701565b61157f565b005b6101f660048036038101906101f19190614445565b611706565b60405161020391906147e7565b60405180910390f35b61022660048036038101906102219190614802565b61176c565b60405161023391906147e7565b60405180910390f35b61025660048036038101906102519190614445565b6117f0565b60405161026391906145fa565b60405180910390f35b61028660048036038101906102819190614802565b6120c2565b005b6102a2600480360381019061029d919061484b565b61217b565b6040516102af9190614423565b60405180910390f35b6102d260048036038101906102cd9190614878565b612596565b005b6102ee60048036038101906102e99190614445565b612810565b005b6102f8612985565b6040516103059190614bae565b60405180910390f35b61032860048036038101906103239190614802565b613134565b60405161033591906145fa565b60405180910390f35b61035860048036038101906103539190614445565b61385d565b6040516103709c9b9a99989796959493929190614bd0565b60405180910390f35b3373ffffffffffffffffffffffffffffffffffffffff16600084815481106103a4576103a3614cc2565b5b90600052602060002090600e020160000160009054906101000a900473ffffffffffffffffffffffffffffffffffffffff1673ffffffffffffffffffffffffffffffffffffffff160361045857816000848154811061040657610405614cc2565b5b90600052602060002090600e020160030190816104239190614efd565b50806000848154811061043957610438614cc2565b5b90600052602060002090600e020160060190816104569190614efd565b505b505050565b60005b6001805490508110156105c9578173ffffffffffffffffffffffffffffffffffffffff166001828154811061049857610497614cc2565b5b906000526020600020906007020160050160009054906101000a900473ffffffffffffffffffffffffffffffffffffffff1673ffffffffffffffffffffffffffffffffffffffff16036105b65785600182815481106104fa576104f9614cc2565b5b906000526020600020906007020160010190816105179190614efd565b50846001828154811061052d5761052c614cc2565b5b9060005260206000209060070201600201908161054a9190614efd565b5083600182815481106105605761055f614cc2565b5b9060005260206000209060070201600401908161057d9190614efd565b50826001828154811061059357610592614cc2565b5b906000526020600020906007020160030190816105b09190614efd565b506105c9565b80806105c190614ffe565b915050610460565b507f2546b90e6eb3815c1dc83f637ecf7eee80eb147db72648f81c4826967ea308b7816040516105f99190615046565b60405180910390a15050505050565b610610613d3a565b610618613d3a565b60005b600180549050811015610a19573373ffffffffffffffffffffffffffffffffffffffff166001828154811061065357610652614cc2565b5b906000526020600020906007020160050160009054906101000a900473ffffffffffffffffffffffffffffffffffffffff1673ffffffffffffffffffffffffffffffffffffffff1603610a0657600181815481106106b4576106b3614cc2565b5b90600052602060002090600702016040518060e0016040529081600082015481526020016001820180546106e790614d20565b80601f016020809104026020016040519081016040528092919081815260200182805461071390614d20565b80156107605780601f1061073557610100808354040283529160200191610760565b820191906000526020600020905b81548152906001019060200180831161074357829003601f168201915b5050505050815260200160028201805461077990614d20565b80601f01602080910402602001604051908101604052809291908181526020018280546107a590614d20565b80156107f25780601f106107c7576101008083540402835291602001916107f2565b820191906000526020600020905b8154815290600101906020018083116107d557829003601f168201915b5050505050815260200160038201805461080b90614d20565b80601f016020809104026020016040519081016040528092919081815260200182805461083790614d20565b80156108845780601f1061085957610100808354040283529160200191610884565b820191906000526020600020905b81548152906001019060200180831161086757829003601f168201915b5050505050815260200160048201805461089d90614d20565b80601f01602080910402602001604051908101604052809291908181526020018280546108c990614d20565b80156109165780601f106108eb57610100808354040283529160200191610916565b820191906000526020600020905b8154815290600101906020018083116108f957829003601f168201915b505050505081526020016005820160009054906101000a900473ffffffffffffffffffffffffffffffffffffffff1673ffffffffffffffffffffffffffffffffffffffff1673ffffffffffffffffffffffffffffffffffffffff168152602001600682018054806020026020016040519081016040528092919081815260200182805480156109fa57602002820191906000526020600020905b8160009054906101000a900473ffffffffffffffffffffffffffffffffffffffff1673ffffffffffffffffffffffffffffffffffffffff16815260200190600101908083116109b0575b50505050508152505091505b8080610a1190614ffe565b91505061061b565b508091505090565b610a29613d8d565b6000805b60008481548110610a4157610a40614cc2565b5b90600052602060002090600e020160080180549050811015610b0d573373ffffffffffffffffffffffffffffffffffffffff1660008581548110610a8857610a87614cc2565b5b90600052602060002090600e02016008018281548110610aab57610aaa614cc2565b5b9060005260206000200160009054906101000a900473ffffffffffffffffffffffffffffffffffffffff1673ffffffffffffffffffffffffffffffffffffffff1603610afa5760019150610b0d565b8080610b0590614ffe565b915050610a2d565b5060006001905081610bfe5760005b60008581548110610b3057610b2f614cc2565b5b90600052602060002090600e020160080180549050811015610bfc573373ffffffffffffffffffffffffffffffffffffffff1660008681548110610b7757610b76614cc2565b5b90600052602060002090600e02016008018281548110610b9a57610b99614cc2565b5b9060005260206000200160009054906101000a900473ffffffffffffffffffffffffffffffffffffffff1673ffffffffffffffffffffffffffffffffffffffff1603610be95760009150610bfc565b8080610bf490614ffe565b915050610b1c565b505b8015610c8b5760008481548110610c1857610c17614cc2565b5b90600052602060002090600e0201600901339080600181540180825580915050600190039060005260206000200160009091909190916101000a81548173ffffffffffffffffffffffffffffffffffffffff021916908373ffffffffffffffffffffffffffffffffffffffff1602179055505b60008481548110610c9f57610c9e614cc2565b5b90600052602060002090600e0201604051806101c00160405290816000820160009054906101000a900473ffffffffffffffffffffffffffffffffffffffff1673ffffffffffffffffffffffffffffffffffffffff1673ffffffffffffffffffffffffffffffffffffffff16815260200160018201548152602001600282018054610d2990614d20565b80601f0160208091040260200160405190810160405280929190818152602001828054610d5590614d20565b8015610da25780601f10610d7757610100808354040283529160200191610da2565b820191906000526020600020905b815481529060010190602001808311610d8557829003601f168201915b50505050508152602001600382018054610dbb90614d20565b80601f0160208091040260200160405190810160405280929190818152602001828054610de790614d20565b8015610e345780601f10610e0957610100808354040283529160200191610e34565b820191906000526020600020905b815481529060010190602001808311610e1757829003601f168201915b50505050508152602001600482018054610e4d90614d20565b80601f0160208091040260200160405190810160405280929190818152602001828054610e7990614d20565b8015610ec65780601f10610e9b57610100808354040283529160200191610ec6565b820191906000526020600020905b815481529060010190602001808311610ea957829003601f168201915b50505050508152602001600582018054610edf90614d20565b80601f0160208091040260200160405190810160405280929190818152602001828054610f0b90614d20565b8015610f585780601f10610f2d57610100808354040283529160200191610f58565b820191906000526020600020905b815481529060010190602001808311610f3b57829003601f168201915b50505050508152602001600682018054610f7190614d20565b80601f0160208091040260200160405190810160405280929190818152602001828054610f9d90614d20565b8015610fea5780601f10610fbf57610100808354040283529160200191610fea565b820191906000526020600020905b815481529060010190602001808311610fcd57829003601f168201915b50505050508152602001600782015481526020016008820180548060200260200160405190810160405280929190818152602001828054801561108257602002820191906000526020600020905b8160009054906101000a900473ffffffffffffffffffffffffffffffffffffffff1673ffffffffffffffffffffffffffffffffffffffff1681526020019060010190808311611038575b505050505081526020016009820180548060200260200160405190810160405280929190818152602001828054801561111057602002820191906000526020600020905b8160009054906101000a900473ffffffffffffffffffffffffffffffffffffffff1673ffffffffffffffffffffffffffffffffffffffff16815260200190600101908083116110c6575b50505050508152602001600a820160009054906101000a900460ff16151515158152602001600b8201805461114490614d20565b80601f016020809104026020016040519081016040528092919081815260200182805461117090614d20565b80156111bd5780601f10611192576101008083540402835291602001916111bd565b820191906000526020600020905b8154815290600101906020018083116111a057829003601f168201915b50505050508152602001600c820180546111d690614d20565b80601f016020809104026020016040519081016040528092919081815260200182805461120290614d20565b801561124f5780601f106112245761010080835404028352916020019161124f565b820191906000526020600020905b81548152906001019060200180831161123257829003601f168201915b50505050508152602001600d8201805461126890614d20565b80601f016020809104026020016040519081016040528092919081815260200182805461129490614d20565b80156112e15780601f106112b6576101008083540402835291602001916112e1565b820191906000526020600020905b8154815290600101906020018083116112c457829003601f168201915b50505050508152505092505050919050565b6001818154811061130357600080fd5b906000526020600020906007020160009150905080600001549080600101805461132c90614d20565b80601f016020809104026020016040519081016040528092919081815260200182805461135890614d20565b80156113a55780601f1061137a576101008083540402835291602001916113a5565b820191906000526020600020905b81548152906001019060200180831161138857829003601f168201915b5050505050908060020180546113ba90614d20565b80601f01602080910402602001604051908101604052809291908181526020018280546113e690614d20565b80156114335780601f1061140857610100808354040283529160200191611433565b820191906000526020600020905b81548152906001019060200180831161141657829003601f168201915b50505050509080600301805461144890614d20565b80601f016020809104026020016040519081016040528092919081815260200182805461147490614d20565b80156114c15780601f10611496576101008083540402835291602001916114c1565b820191906000526020600020905b8154815290600101906020018083116114a457829003601f168201915b5050505050908060040180546114d690614d20565b80601f016020809104026020016040519081016040528092919081815260200182805461150290614d20565b801561154f5780601f106115245761010080835404028352916020019161154f565b820191906000526020600020905b81548152906001019060200180831161153257829003601f168201915b5050505050908060050160009054906101000a900473ffffffffffffffffffffffffffffffffffffffff16905086565b60006001805490509050606060016040518060e001604052808481526020018881526020018781526020018581526020018681526020013373ffffffffffffffffffffffffffffffffffffffff16815260200183815250908060018154018082558091505060019003906000526020600020906007020160009091909190915060008201518160000155602082015181600101908161161e9190614efd565b5060408201518160020190816116349190614efd565b50606082015181600301908161164a9190614efd565b5060808201518160040190816116609190614efd565b5060a08201518160050160006101000a81548173ffffffffffffffffffffffffffffffffffffffff021916908373ffffffffffffffffffffffffffffffffffffffff16021790555060c08201518160060190805190602001906116c4929190613e14565b5050507fdf54227b669e96e69d8f583a07d577cb4081ab69c78dbcff8fce5af67e1ac546336040516116f69190615046565b60405180910390a1505050505050565b600060016000838154811061171e5761171d614cc2565b5b90600052602060002090600e02016007015461173a9190615061565b6000838154811061174e5761174d614cc2565b5b90600052602060002090600e02016007018190555060019050919050565b6000806000905060005b6001805490508110156117e65783805190602001206001828154811061179f5761179e614cc2565b5b90600052602060002090600702016002016040516117bd9190615138565b6040518091039020036117d357600191506117e6565b80806117de90614ffe565b915050611776565b5080915050919050565b6117f8613d8d565b6000805b600084815481106118105761180f614cc2565b5b90600052602060002090600e0201600901805490508110156118dc573373ffffffffffffffffffffffffffffffffffffffff166000858154811061185757611856614cc2565b5b90600052602060002090600e0201600901828154811061187a57611879614cc2565b5b9060005260206000200160009054906101000a900473ffffffffffffffffffffffffffffffffffffffff1673ffffffffffffffffffffffffffffffffffffffff16036118c957600191506118dc565b80806118d490614ffe565b9150506117fc565b50600060019050816119cd5760005b600085815481106118ff576118fe614cc2565b5b90600052602060002090600e0201600801805490508110156119cb573373ffffffffffffffffffffffffffffffffffffffff166000868154811061194657611945614cc2565b5b90600052602060002090600e0201600801828154811061196957611968614cc2565b5b9060005260206000200160009054906101000a900473ffffffffffffffffffffffffffffffffffffffff1673ffffffffffffffffffffffffffffffffffffffff16036119b857600091506119cb565b80806119c390614ffe565b9150506118eb565b505b8015611a5a57600084815481106119e7576119e6614cc2565b5b90600052602060002090600e0201600801339080600181540180825580915050600190039060005260206000200160009091909190916101000a81548173ffffffffffffffffffffffffffffffffffffffff021916908373ffffffffffffffffffffffffffffffffffffffff1602179055505b60008481548110611a6e57611a6d614cc2565b5b90600052602060002090600e0201604051806101c00160405290816000820160009054906101000a900473ffffffffffffffffffffffffffffffffffffffff1673ffffffffffffffffffffffffffffffffffffffff1673ffffffffffffffffffffffffffffffffffffffff16815260200160018201548152602001600282018054611af890614d20565b80601f0160208091040260200160405190810160405280929190818152602001828054611b2490614d20565b8015611b715780601f10611b4657610100808354040283529160200191611b71565b820191906000526020600020905b815481529060010190602001808311611b5457829003601f168201915b50505050508152602001600382018054611b8a90614d20565b80601f0160208091040260200160405190810160405280929190818152602001828054611bb690614d20565b8015611c035780601f10611bd857610100808354040283529160200191611c03565b820191906000526020600020905b815481529060010190602001808311611be657829003601f168201915b50505050508152602001600482018054611c1c90614d20565b80601f0160208091040260200160405190810160405280929190818152602001828054611c4890614d20565b8015611c955780601f10611c6a57610100808354040283529160200191611c95565b820191906000526020600020905b815481529060010190602001808311611c7857829003601f168201915b50505050508152602001600582018054611cae90614d20565b80601f0160208091040260200160405190810160405280929190818152602001828054611cda90614d20565b8015611d275780601f10611cfc57610100808354040283529160200191611d27565b820191906000526020600020905b815481529060010190602001808311611d0a57829003601f168201915b50505050508152602001600682018054611d4090614d20565b80601f0160208091040260200160405190810160405280929190818152602001828054611d6c90614d20565b8015611db95780601f10611d8e57610100808354040283529160200191611db9565b820191906000526020600020905b815481529060010190602001808311611d9c57829003601f168201915b505050505081526020016007820154815260200160088201805480602002602001604051908101604052809291908181526020018280548015611e5157602002820191906000526020600020905b8160009054906101000a900473ffffffffffffffffffffffffffffffffffffffff1673ffffffffffffffffffffffffffffffffffffffff1681526020019060010190808311611e07575b5050505050815260200160098201805480602002602001604051908101604052809291908181526020018280548015611edf57602002820191906000526020600020905b8160009054906101000a900473ffffffffffffffffffffffffffffffffffffffff1673ffffffffffffffffffffffffffffffffffffffff1681526020019060010190808311611e95575b50505050508152602001600a820160009054906101000a900460ff16151515158152602001600b82018054611f1390614d20565b80601f0160208091040260200160405190810160405280929190818152602001828054611f3f90614d20565b8015611f8c5780601f10611f6157610100808354040283529160200191611f8c565b820191906000526020600020905b815481529060010190602001808311611f6f57829003601f168201915b50505050508152602001600c82018054611fa590614d20565b80601f0160208091040260200160405190810160405280929190818152602001828054611fd190614d20565b801561201e5780601f10611ff35761010080835404028352916020019161201e565b820191906000526020600020905b81548152906001019060200180831161200157829003601f168201915b50505050508152602001600d8201805461203790614d20565b80601f016020809104026020016040519081016040528092919081815260200182805461206390614d20565b80156120b05780601f10612085576101008083540402835291602001916120b0565b820191906000526020600020905b81548152906001019060200180831161209357829003601f168201915b50505050508152505092505050919050565b60005b6000805490508110156121775760008280519060200120600083815481106120f0576120ef614cc2565b5b90600052602060002090600e020160020160405161210e9190615138565b604051809103902014905080156121635760016000838154811061213557612134614cc2565b5b90600052602060002090600e0201600a0160006101000a81548160ff02191690831515021790555050612177565b50808061216f90614ffe565b9150506120c5565b5050565b612183613d3a565b61218b613d3a565b60005b60018054905081101561258c578373ffffffffffffffffffffffffffffffffffffffff16600182815481106121c6576121c5614cc2565b5b906000526020600020906007020160050160009054906101000a900473ffffffffffffffffffffffffffffffffffffffff1673ffffffffffffffffffffffffffffffffffffffff1603612579576001818154811061222757612226614cc2565b5b90600052602060002090600702016040518060e00160405290816000820154815260200160018201805461225a90614d20565b80601f016020809104026020016040519081016040528092919081815260200182805461228690614d20565b80156122d35780601f106122a8576101008083540402835291602001916122d3565b820191906000526020600020905b8154815290600101906020018083116122b657829003601f168201915b505050505081526020016002820180546122ec90614d20565b80601f016020809104026020016040519081016040528092919081815260200182805461231890614d20565b80156123655780601f1061233a57610100808354040283529160200191612365565b820191906000526020600020905b81548152906001019060200180831161234857829003601f168201915b5050505050815260200160038201805461237e90614d20565b80601f01602080910402602001604051908101604052809291908181526020018280546123aa90614d20565b80156123f75780601f106123cc576101008083540402835291602001916123f7565b820191906000526020600020905b8154815290600101906020018083116123da57829003601f168201915b5050505050815260200160048201805461241090614d20565b80601f016020809104026020016040519081016040528092919081815260200182805461243c90614d20565b80156124895780601f1061245e57610100808354040283529160200191612489565b820191906000526020600020905b81548152906001019060200180831161246c57829003601f168201915b505050505081526020016005820160009054906101000a900473ffffffffffffffffffffffffffffffffffffffff1673ffffffffffffffffffffffffffffffffffffffff1673ffffffffffffffffffffffffffffffffffffffff1681526020016006820180548060200260200160405190810160405280929190818152602001828054801561256d57602002820191906000526020600020905b8160009054906101000a900473ffffffffffffffffffffffffffffffffffffffff1673ffffffffffffffffffffffffffffffffffffffff1681526020019060010190808311612523575b50505050508152505091505b808061258490614ffe565b91505061218e565b5080915050919050565b6000808054905090506125a7613d3a565b60606125b1610608565b91506000604051806101c001604052803373ffffffffffffffffffffffffffffffffffffffff1681526020018581526020018a8152602001898152602001888152602001878152602001868152602001600081526020018381526020018381526020016000151581526020018460200151815260200184604001518152602001846080015181525090806001815401808255809150506001900390600052602060002090600e020160009091909190915060008201518160000160006101000a81548173ffffffffffffffffffffffffffffffffffffffff021916908373ffffffffffffffffffffffffffffffffffffffff1602179055506020820151816001015560408201518160020190816126c89190614efd565b5060608201518160030190816126de9190614efd565b5060808201518160040190816126f49190614efd565b5060a082015181600501908161270a9190614efd565b5060c08201518160060190816127209190614efd565b5060e08201518160070155610100820151816008019080519060200190612748929190613e14565b50610120820151816009019080519060200190612766929190613e14565b5061014082015181600a0160006101000a81548160ff02191690831515021790555061016082015181600b01908161279e9190614efd565b5061018082015181600c0190816127b59190614efd565b506101a082015181600d0190816127cc9190614efd565b5050507fb877fdb9b85387f33c239039316c2d7e95a08b2bcc529faec843cb3801ea41da836040516127fe919061514f565b60405180910390a15050505050505050565b6000805b6001838154811061282857612827614cc2565b5b9060005260206000209060070201600601805490508110156128f4573373ffffffffffffffffffffffffffffffffffffffff166001848154811061286f5761286e614cc2565b5b9060005260206000209060070201600601828154811061289257612891614cc2565b5b9060005260206000200160009054906101000a900473ffffffffffffffffffffffffffffffffffffffff1673ffffffffffffffffffffffffffffffffffffffff16036128e157600191506128f4565b80806128ec90614ffe565b915050612814565b5080612981576001828154811061290e5761290d614cc2565b5b9060005260206000209060070201600601339080600181540180825580915050600190039060005260206000200160009091909190916101000a81548173ffffffffffffffffffffffffffffffffffffffff021916908373ffffffffffffffffffffffffffffffffffffffff1602179055505b5050565b60606000805b6000805490508110156129f85760001515600082815481106129b0576129af614cc2565b5b90600052602060002090600e0201600a0160009054906101000a900460ff161515036129e55781806129e190614ffe565b9250505b80806129f090614ffe565b91505061298b565b5060008167ffffffffffffffff811115612a1557612a14613f20565b5b604051908082528060200260200182016040528015612a4e57816020015b612a3b613d8d565b815260200190600190039081612a335790505b50905060005b8281101561312b576000151560008281548110612a7457612a73614cc2565b5b90600052602060002090600e0201600a0160009054906101000a900460ff161515036131185760008181548110612aae57612aad614cc2565b5b90600052602060002090600e0201604051806101c00160405290816000820160009054906101000a900473ffffffffffffffffffffffffffffffffffffffff1673ffffffffffffffffffffffffffffffffffffffff1673ffffffffffffffffffffffffffffffffffffffff16815260200160018201548152602001600282018054612b3890614d20565b80601f0160208091040260200160405190810160405280929190818152602001828054612b6490614d20565b8015612bb15780601f10612b8657610100808354040283529160200191612bb1565b820191906000526020600020905b815481529060010190602001808311612b9457829003601f168201915b50505050508152602001600382018054612bca90614d20565b80601f0160208091040260200160405190810160405280929190818152602001828054612bf690614d20565b8015612c435780601f10612c1857610100808354040283529160200191612c43565b820191906000526020600020905b815481529060010190602001808311612c2657829003601f168201915b50505050508152602001600482018054612c5c90614d20565b80601f0160208091040260200160405190810160405280929190818152602001828054612c8890614d20565b8015612cd55780601f10612caa57610100808354040283529160200191612cd5565b820191906000526020600020905b815481529060010190602001808311612cb857829003601f168201915b50505050508152602001600582018054612cee90614d20565b80601f0160208091040260200160405190810160405280929190818152602001828054612d1a90614d20565b8015612d675780601f10612d3c57610100808354040283529160200191612d67565b820191906000526020600020905b815481529060010190602001808311612d4a57829003601f168201915b50505050508152602001600682018054612d8090614d20565b80601f0160208091040260200160405190810160405280929190818152602001828054612dac90614d20565b8015612df95780601f10612dce57610100808354040283529160200191612df9565b820191906000526020600020905b815481529060010190602001808311612ddc57829003601f168201915b505050505081526020016007820154815260200160088201805480602002602001604051908101604052809291908181526020018280548015612e9157602002820191906000526020600020905b8160009054906101000a900473ffffffffffffffffffffffffffffffffffffffff1673ffffffffffffffffffffffffffffffffffffffff1681526020019060010190808311612e47575b5050505050815260200160098201805480602002602001604051908101604052809291908181526020018280548015612f1f57602002820191906000526020600020905b8160009054906101000a900473ffffffffffffffffffffffffffffffffffffffff1673ffffffffffffffffffffffffffffffffffffffff1681526020019060010190808311612ed5575b50505050508152602001600a820160009054906101000a900460ff16151515158152602001600b82018054612f5390614d20565b80601f0160208091040260200160405190810160405280929190818152602001828054612f7f90614d20565b8015612fcc5780601f10612fa157610100808354040283529160200191612fcc565b820191906000526020600020905b815481529060010190602001808311612faf57829003601f168201915b50505050508152602001600c82018054612fe590614d20565b80601f016020809104026020016040519081016040528092919081815260200182805461301190614d20565b801561305e5780601f106130335761010080835404028352916020019161305e565b820191906000526020600020905b81548152906001019060200180831161304157829003601f168201915b50505050508152602001600d8201805461307790614d20565b80601f01602080910402602001604051908101604052809291908181526020018280546130a390614d20565b80156130f05780601f106130c5576101008083540402835291602001916130f0565b820191906000526020600020905b8154815290600101906020018083116130d357829003601f168201915b50505050508152505082828151811061310c5761310b614cc2565b5b60200260200101819052505b808061312390614ffe565b915050612a54565b50809250505090565b61313c613d8d565b613144613d8d565b60005b60008054905081101561385357600015156000828154811061316c5761316b614cc2565b5b90600052602060002090600e0201600a0160009054906101000a900460ff1615151480156131d957508380519060200120600082815481106131b1576131b0614cc2565b5b90600052602060002090600e02016002016040516131cf9190615138565b6040518091039020145b1561384057600081815481106131f2576131f1614cc2565b5b90600052602060002090600e0201604051806101c00160405290816000820160009054906101000a900473ffffffffffffffffffffffffffffffffffffffff1673ffffffffffffffffffffffffffffffffffffffff1673ffffffffffffffffffffffffffffffffffffffff1681526020016001820154815260200160028201805461327c90614d20565b80601f01602080910402602001604051908101604052809291908181526020018280546132a890614d20565b80156132f55780601f106132ca576101008083540402835291602001916132f5565b820191906000526020600020905b8154815290600101906020018083116132d857829003601f168201915b5050505050815260200160038201805461330e90614d20565b80601f016020809104026020016040519081016040528092919081815260200182805461333a90614d20565b80156133875780601f1061335c57610100808354040283529160200191613387565b820191906000526020600020905b81548152906001019060200180831161336a57829003601f168201915b505050505081526020016004820180546133a090614d20565b80601f01602080910402602001604051908101604052809291908181526020018280546133cc90614d20565b80156134195780601f106133ee57610100808354040283529160200191613419565b820191906000526020600020905b8154815290600101906020018083116133fc57829003601f168201915b5050505050815260200160058201805461343290614d20565b80601f016020809104026020016040519081016040528092919081815260200182805461345e90614d20565b80156134ab5780601f10613480576101008083540402835291602001916134ab565b820191906000526020600020905b81548152906001019060200180831161348e57829003601f168201915b505050505081526020016006820180546134c490614d20565b80601f01602080910402602001604051908101604052809291908181526020018280546134f090614d20565b801561353d5780601f106135125761010080835404028352916020019161353d565b820191906000526020600020905b81548152906001019060200180831161352057829003601f168201915b5050505050815260200160078201548152602001600882018054806020026020016040519081016040528092919081815260200182805480156135d557602002820191906000526020600020905b8160009054906101000a900473ffffffffffffffffffffffffffffffffffffffff1673ffffffffffffffffffffffffffffffffffffffff168152602001906001019080831161358b575b505050505081526020016009820180548060200260200160405190810160405280929190818152602001828054801561366357602002820191906000526020600020905b8160009054906101000a900473ffffffffffffffffffffffffffffffffffffffff1673ffffffffffffffffffffffffffffffffffffffff1681526020019060010190808311613619575b50505050508152602001600a820160009054906101000a900460ff16151515158152602001600b8201805461369790614d20565b80601f01602080910402602001604051908101604052809291908181526020018280546136c390614d20565b80156137105780601f106136e557610100808354040283529160200191613710565b820191906000526020600020905b8154815290600101906020018083116136f357829003601f168201915b50505050508152602001600c8201805461372990614d20565b80601f016020809104026020016040519081016040528092919081815260200182805461375590614d20565b80156137a25780601f10613777576101008083540402835291602001916137a2565b820191906000526020600020905b81548152906001019060200180831161378557829003601f168201915b50505050508152602001600d820180546137bb90614d20565b80601f01602080910402602001604051908101604052809291908181526020018280546137e790614d20565b80156138345780601f1061380957610100808354040283529160200191613834565b820191906000526020600020905b81548152906001019060200180831161381757829003601f168201915b50505050508152505091505b808061384b90614ffe565b915050613147565b5080915050919050565b6000818154811061386d57600080fd5b90600052602060002090600e02016000915090508060000160009054906101000a900473ffffffffffffffffffffffffffffffffffffffff16908060010154908060020180546138bc90614d20565b80601f01602080910402602001604051908101604052809291908181526020018280546138e890614d20565b80156139355780601f1061390a57610100808354040283529160200191613935565b820191906000526020600020905b81548152906001019060200180831161391857829003601f168201915b50505050509080600301805461394a90614d20565b80601f016020809104026020016040519081016040528092919081815260200182805461397690614d20565b80156139c35780601f10613998576101008083540402835291602001916139c3565b820191906000526020600020905b8154815290600101906020018083116139a657829003601f168201915b5050505050908060040180546139d890614d20565b80601f0160208091040260200160405190810160405280929190818152602001828054613a0490614d20565b8015613a515780601f10613a2657610100808354040283529160200191613a51565b820191906000526020600020905b815481529060010190602001808311613a3457829003601f168201915b505050505090806005018054613a6690614d20565b80601f0160208091040260200160405190810160405280929190818152602001828054613a9290614d20565b8015613adf5780601f10613ab457610100808354040283529160200191613adf565b820191906000526020600020905b815481529060010190602001808311613ac257829003601f168201915b505050505090806006018054613af490614d20565b80601f0160208091040260200160405190810160405280929190818152602001828054613b2090614d20565b8015613b6d5780601f10613b4257610100808354040283529160200191613b6d565b820191906000526020600020905b815481529060010190602001808311613b5057829003601f168201915b50505050509080600701549080600a0160009054906101000a900460ff169080600b018054613b9b90614d20565b80601f0160208091040260200160405190810160405280929190818152602001828054613bc790614d20565b8015613c145780601f10613be957610100808354040283529160200191613c14565b820191906000526020600020905b815481529060010190602001808311613bf757829003601f168201915b50505050509080600c018054613c2990614d20565b80601f0160208091040260200160405190810160405280929190818152602001828054613c5590614d20565b8015613ca25780601f10613c7757610100808354040283529160200191613ca2565b820191906000526020600020905b815481529060010190602001808311613c8557829003601f168201915b50505050509080600d018054613cb790614d20565b80601f0160208091040260200160405190810160405280929190818152602001828054613ce390614d20565b8015613d305780601f10613d0557610100808354040283529160200191613d30565b820191906000526020600020905b815481529060010190602001808311613d1357829003601f168201915b505050505090508c565b6040518060e001604052806000815260200160608152602001606081526020016060815260200160608152602001600073ffffffffffffffffffffffffffffffffffffffff168152602001606081525090565b604051806101c00160405280600073ffffffffffffffffffffffffffffffffffffffff1681526020016000815260200160608152602001606081526020016060815260200160608152602001606081526020016000815260200160608152602001606081526020016000151581526020016060815260200160608152602001606081525090565b828054828255906000526020600020908101928215613e8d579160200282015b82811115613e8c5782518260006101000a81548173ffffffffffffffffffffffffffffffffffffffff021916908373ffffffffffffffffffffffffffffffffffffffff16021790555091602001919060010190613e34565b5b509050613e9a9190613e9e565b5090565b5b80821115613eb7576000816000905550600101613e9f565b5090565b6000604051905090565b600080fd5b600080fd5b6000819050919050565b613ee281613ecf565b8114613eed57600080fd5b50565b600081359050613eff81613ed9565b92915050565b600080fd5b600080fd5b6000601f19601f8301169050919050565b7f4e487b7100000000000000000000000000000000000000000000000000000000600052604160045260246000fd5b613f5882613f0f565b810181811067ffffffffffffffff82111715613f7757613f76613f20565b5b80604052505050565b6000613f8a613ebb565b9050613f968282613f4f565b919050565b600067ffffffffffffffff821115613fb657613fb5613f20565b5b613fbf82613f0f565b9050602081019050919050565b82818337600083830152505050565b6000613fee613fe984613f9b565b613f80565b90508281526020810184848401111561400a57614009613f0a565b5b614015848285613fcc565b509392505050565b600082601f83011261403257614031613f05565b5b8135614042848260208601613fdb565b91505092915050565b60008060006060848603121561406457614063613ec5565b5b600061407286828701613ef0565b935050602084013567ffffffffffffffff81111561409357614092613eca565b5b61409f8682870161401d565b925050604084013567ffffffffffffffff8111156140c0576140bf613eca565b5b6140cc8682870161401d565b9150509250925092565b600073ffffffffffffffffffffffffffffffffffffffff82169050919050565b6000614101826140d6565b9050919050565b614111816140f6565b811461411c57600080fd5b50565b60008135905061412e81614108565b92915050565b600080600080600060a086880312156141505761414f613ec5565b5b600086013567ffffffffffffffff81111561416e5761416d613eca565b5b61417a8882890161401d565b955050602086013567ffffffffffffffff81111561419b5761419a613eca565b5b6141a78882890161401d565b945050604086013567ffffffffffffffff8111156141c8576141c7613eca565b5b6141d48882890161401d565b935050606086013567ffffffffffffffff8111156141f5576141f4613eca565b5b6142018882890161401d565b92505060806142128882890161411f565b9150509295509295909350565b61422881613ecf565b82525050565b600081519050919050565b600082825260208201905092915050565b60005b8381101561426857808201518184015260208101905061424d565b60008484015250505050565b600061427f8261422e565b6142898185614239565b935061429981856020860161424a565b6142a281613f0f565b840191505092915050565b6142b6816140f6565b82525050565b600081519050919050565b600082825260208201905092915050565b6000819050602082019050919050565b60006142f483836142ad565b60208301905092915050565b6000602082019050919050565b6000614318826142bc565b61432281856142c7565b935061432d836142d8565b8060005b8381101561435e57815161434588826142e8565b975061435083614300565b925050600181019050614331565b5085935050505092915050565b600060e083016000830151614383600086018261421f565b506020830151848203602086015261439b8282614274565b915050604083015184820360408601526143b58282614274565b915050606083015184820360608601526143cf8282614274565b915050608083015184820360808601526143e98282614274565b91505060a08301516143fe60a08601826142ad565b5060c083015184820360c0860152614416828261430d565b9150508091505092915050565b6000602082019050818103600083015261443d818461436b565b905092915050565b60006020828403121561445b5761445a613ec5565b5b600061446984828501613ef0565b91505092915050565b60008115159050919050565b61448781614472565b82525050565b60006101c0830160008301516144a660008601826142ad565b5060208301516144b9602086018261421f565b50604083015184820360408601526144d18282614274565b915050606083015184820360608601526144eb8282614274565b915050608083015184820360808601526145058282614274565b91505060a083015184820360a086015261451f8282614274565b91505060c083015184820360c08601526145398282614274565b91505060e083015161454e60e086018261421f565b50610100830151848203610100860152614568828261430d565b915050610120830151848203610120860152614584828261430d565b91505061014083015161459b61014086018261447e565b506101608301518482036101608601526145b58282614274565b9150506101808301518482036101808601526145d18282614274565b9150506101a08301518482036101a08601526145ed8282614274565b9150508091505092915050565b60006020820190508181036000830152614614818461448d565b905092915050565b61462581613ecf565b82525050565b600082825260208201905092915050565b60006146478261422e565b614651818561462b565b935061466181856020860161424a565b61466a81613f0f565b840191505092915050565b61467e816140f6565b82525050565b600060c082019050614699600083018961461c565b81810360208301526146ab818861463c565b905081810360408301526146bf818761463c565b905081810360608301526146d3818661463c565b905081810360808301526146e7818561463c565b90506146f660a0830184614675565b979650505050505050565b6000806000806080858703121561471b5761471a613ec5565b5b600085013567ffffffffffffffff81111561473957614738613eca565b5b6147458782880161401d565b945050602085013567ffffffffffffffff81111561476657614765613eca565b5b6147728782880161401d565b935050604085013567ffffffffffffffff81111561479357614792613eca565b5b61479f8782880161401d565b925050606085013567ffffffffffffffff8111156147c0576147bf613eca565b5b6147cc8782880161401d565b91505092959194509250565b6147e181614472565b82525050565b60006020820190506147fc60008301846147d8565b92915050565b60006020828403121561481857614817613ec5565b5b600082013567ffffffffffffffff81111561483657614835613eca565b5b6148428482850161401d565b91505092915050565b60006020828403121561486157614860613ec5565b5b600061486f8482850161411f565b91505092915050565b600080600080600060a0868803121561489457614893613ec5565b5b600086013567ffffffffffffffff8111156148b2576148b1613eca565b5b6148be8882890161401d565b955050602086013567ffffffffffffffff8111156148df576148de613eca565b5b6148eb8882890161401d565b945050604086013567ffffffffffffffff81111561490c5761490b613eca565b5b6149188882890161401d565b935050606086013567ffffffffffffffff81111561493957614938613eca565b5b6149458882890161401d565b925050608086013567ffffffffffffffff81111561496657614965613eca565b5b6149728882890161401d565b9150509295509295909350565b600081519050919050565b600082825260208201905092915050565b6000819050602082019050919050565b60006101c0830160008301516149c460008601826142ad565b5060208301516149d7602086018261421f565b50604083015184820360408601526149ef8282614274565b91505060608301518482036060860152614a098282614274565b91505060808301518482036080860152614a238282614274565b91505060a083015184820360a0860152614a3d8282614274565b91505060c083015184820360c0860152614a578282614274565b91505060e0830151614a6c60e086018261421f565b50610100830151848203610100860152614a86828261430d565b915050610120830151848203610120860152614aa2828261430d565b915050610140830151614ab961014086018261447e565b50610160830151848203610160860152614ad38282614274565b915050610180830151848203610180860152614aef8282614274565b9150506101a08301518482036101a0860152614b0b8282614274565b9150508091505092915050565b6000614b2483836149ab565b905092915050565b6000602082019050919050565b6000614b448261497f565b614b4e818561498a565b935083602082028501614b608561499b565b8060005b85811015614b9c5784840389528151614b7d8582614b18565b9450614b8883614b2c565b925060208a01995050600181019050614b64565b50829750879550505050505092915050565b60006020820190508181036000830152614bc88184614b39565b905092915050565b600061018082019050614be6600083018f614675565b614bf3602083018e61461c565b8181036040830152614c05818d61463c565b90508181036060830152614c19818c61463c565b90508181036080830152614c2d818b61463c565b905081810360a0830152614c41818a61463c565b905081810360c0830152614c55818961463c565b9050614c6460e083018861461c565b614c726101008301876147d8565b818103610120830152614c85818661463c565b9050818103610140830152614c9a818561463c565b9050818103610160830152614caf818461463c565b90509d9c50505050505050505050505050565b7f4e487b7100000000000000000000000000000000000000000000000000000000600052603260045260246000fd5b7f4e487b7100000000000000000000000000000000000000000000000000000000600052602260045260246000fd5b60006002820490506001821680614d3857607f821691505b602082108103614d4b57614d4a614cf1565b5b50919050565b60008190508160005260206000209050919050565b60006020601f8301049050919050565b600082821b905092915050565b600060088302614db37fffffffffffffffffffffffffffffffffffffffffffffffffffffffffffffffff82614d76565b614dbd8683614d76565b95508019841693508086168417925050509392505050565b6000819050919050565b6000614dfa614df5614df084613ecf565b614dd5565b613ecf565b9050919050565b6000819050919050565b614e1483614ddf565b614e28614e2082614e01565b848454614d83565b825550505050565b600090565b614e3d614e30565b614e48818484614e0b565b505050565b5b81811015614e6c57614e61600082614e35565b600181019050614e4e565b5050565b601f821115614eb157614e8281614d51565b614e8b84614d66565b81016020851015614e9a578190505b614eae614ea685614d66565b830182614e4d565b50505b505050565b600082821c905092915050565b6000614ed460001984600802614eb6565b1980831691505092915050565b6000614eed8383614ec3565b9150826002028217905092915050565b614f068261422e565b67ffffffffffffffff811115614f1f57614f1e613f20565b5b614f298254614d20565b614f34828285614e70565b600060209050601f831160018114614f675760008415614f55578287015190505b614f5f8582614ee1565b865550614fc7565b601f198416614f7586614d51565b60005b82811015614f9d57848901518255600182019150602085019450602081019050614f78565b86831015614fba5784890151614fb6601f891682614ec3565b8355505b6001600288020188555050505b505050505050565b7f4e487b7100000000000000000000000000000000000000000000000000000000600052601160045260246000fd5b600061500982613ecf565b91507fffffffffffffffffffffffffffffffffffffffffffffffffffffffffffffffff820361503b5761503a614fcf565b5b600182019050919050565b600060208201905061505b6000830184614675565b92915050565b600061506c82613ecf565b915061507783613ecf565b925082820190508082111561508f5761508e614fcf565b5b92915050565b600081905092915050565b60008190508160005260206000209050919050565b600081546150c281614d20565b6150cc8186615095565b945060018216600081146150e757600181146150fc5761512f565b60ff198316865281151582028601935061512f565b615105856150a0565b60005b8381101561512757815481890152600182019150602081019050615108565b838801955050505b50505092915050565b600061514482846150b5565b915081905092915050565b6000602082019050615164600083018461461c565b9291505056fea2646970667358221220d0b7dcf9df7a0a42c80550571842812317d48ceee04ed74049bcbeabc5984b8264736f6c63430008100033",
  "immutableReferences": {},
  "source": "// SPDX-License-Identifier: MIT\npragma solidity ^0.8.4;\n\ncontract Youtube {\n    struct User {\n        uint256 id;\n        string username;\n        string channelName;\n        string coverImage;\n        string profileImage;\n        address walletId;\n        address[] subscribers;\n    }\n\n    struct Video {\n        address owner;\n        uint256 id;\n        string uuid;\n        string title;\n        string videoUrl;\n        string thumbnailUrl;\n        string description;\n        uint256 views;\n        address[] likes;\n        address[] dislikes;\n        bool isDeleted;\n        string username;\n        string channelName;\n        string profileImage;\n    }\n\n    Video[] public videos;\n    User[] public users;\n\n    mapping(uint256 => address) private videoToOwner;\n\n    event VideoUploaded(uint256 id);\n    event UpdateUser(address walletId);\n    event CreateUser(address walletId);\n\n    function getMyProfile() public view returns (User memory) {\n        User memory userDetails;\n\n        for (uint256 i = 0; i < users.length; i++) {\n            if (users[i].walletId == msg.sender) {\n                userDetails = users[i];\n            }\n        }\n\n        return userDetails;\n    }\n\n    function getUserProfile(address userAddress)\n        public\n        view\n        returns (User memory)\n    {\n        User memory userDetails;\n\n        for (uint256 i = 0; i < users.length; i++) {\n            if (users[i].walletId == userAddress) {\n                userDetails = users[i];\n            }\n        }\n\n        return userDetails;\n    }\n\n    function uploadVideo(\n        string memory uuid,\n        string memory title,\n        string memory video,\n        string memory thumbnail,\n        string memory description\n    ) public {\n        uint256 videoId = videos.length;\n        User memory userDetails;\n        address[] memory emptyAddress;\n\n        userDetails = getMyProfile();\n\n        videos.push(\n            Video(\n                msg.sender,\n                videoId,\n                uuid,\n                title,\n                video,\n                thumbnail,\n                description,\n                0,\n                emptyAddress,\n                emptyAddress,\n                false,\n                userDetails.username,\n                userDetails.channelName,\n                userDetails.profileImage\n            )\n        );\n\n        emit VideoUploaded(videoId);\n    }\n\n    function createUser(\n        string memory username,\n        string memory channelName,\n        string memory profileImg,\n        string memory coverImg\n    ) external {\n        uint256 userId = users.length;\n        address[] memory emptyAddress;\n\n        users.push(\n            User(\n                userId,\n                username,\n                channelName,\n                coverImg,\n                profileImg,\n                msg.sender,\n                emptyAddress\n            )\n        );\n\n        emit CreateUser(msg.sender);\n    }\n\n    function updateUser(\n        string memory username,\n        string memory channelName,\n        string memory profileImg,\n        string memory coverImg,\n        address walletId\n    ) external {\n        for (uint256 i = 0; i < users.length; i++) {\n            if (users[i].walletId == walletId) {\n                users[i].username = username;\n                users[i].channelName = channelName;\n                users[i].profileImage = profileImg;\n                users[i].coverImage = coverImg;\n\n                break;\n            }\n        }\n\n        emit UpdateUser(walletId);\n    }\n\n    function isChannelNameExist(string memory channelName)\n        public\n        view\n        returns (bool isExist)\n    {\n        bool isChannelExist = false;\n\n        for (uint256 i = 0; i < users.length; i++) {\n            if (\n                keccak256(bytes(users[i].channelName)) ==\n                keccak256(bytes(channelName))\n            ) {\n                isChannelExist = true;\n                break;\n            }\n        }\n\n        return isChannelExist;\n    }\n\n    function addSubscribe(uint256 userId) external {\n        bool isUserAlreadySubscribed = false;\n\n        for (uint256 i = 0; i < users[userId].subscribers.length; i++) {\n            if (users[userId].subscribers[i] == msg.sender) {\n                isUserAlreadySubscribed = true;\n                break;\n            }\n        }\n\n        if (!isUserAlreadySubscribed) {\n            users[userId].subscribers.push(msg.sender);\n        }\n    }\n\n    function deleteVideo(string memory uuid) external {\n        for (uint256 i = 0; i < videos.length; i++) {\n            bool isVideoExist = keccak256(bytes(videos[i].uuid)) ==\n                keccak256(bytes(uuid));\n\n            if (isVideoExist) {\n                videos[i].isDeleted = true;\n                break;\n            }\n        }\n    }\n\n    function getAllVideos() external view returns (Video[] memory) {\n        uint256 counter = 0;\n\n        for (uint256 i = 0; i < videos.length; i++) {\n            if (videos[i].isDeleted == false) {\n                counter++;\n            }\n        }\n\n        Video[] memory allVideos = new Video[](counter);\n\n        for (uint256 i = 0; i < counter; i++) {\n            if (videos[i].isDeleted == false) {\n                allVideos[i] = videos[i];\n            }\n        }\n\n        return allVideos;\n    }\n\n    function getVideoByUuid(string memory uuid)\n        external\n        view\n        returns (Video memory)\n    {\n        Video memory video;\n        for (uint256 i = 0; i < videos.length; i++) {\n            if (\n                videos[i].isDeleted == false &&\n                keccak256(bytes(videos[i].uuid)) == keccak256(bytes(uuid))\n            ) {\n                video = videos[i];\n            }\n        }\n\n        return video;\n    }\n\n    function updateVideo(\n        uint256 videoId,\n        string memory title,\n        string memory description\n    ) external {\n        if (videos[videoId].owner == msg.sender) {\n            videos[videoId].title = title;\n            videos[videoId].description = description;\n        }\n    }\n\n    function addViews(uint256 id) public returns (bool result) {\n        videos[id].views = videos[id].views + 1;\n\n        return true;\n    }\n\n    function addLikes(uint256 id) public returns (Video memory result) {\n        bool isUserDisLikedTheVideo = false;\n\n        for (uint256 i = 0; i < videos[id].dislikes.length; i++) {\n            if (videos[id].dislikes[i] == msg.sender) {\n                isUserDisLikedTheVideo = true;\n                break;\n            }\n        }\n\n        bool isUserAllowedToLike = true;\n\n        if (!isUserDisLikedTheVideo) {\n            for (uint256 i = 0; i < videos[id].likes.length; i++) {\n                if (videos[id].likes[i] == msg.sender) {\n                    isUserAllowedToLike = false;\n                    break;\n                }\n            }\n        }\n\n        if (isUserAllowedToLike) {\n            videos[id].likes.push(msg.sender);\n        }\n\n        return videos[id];\n    }\n\n    function addDisLikes(uint256 id) public returns (Video memory result) {\n        bool isUserLikedTheVideo = false;\n\n        for (uint256 i = 0; i < videos[id].likes.length; i++) {\n            if (videos[id].likes[i] == msg.sender) {\n                isUserLikedTheVideo = true;\n                break;\n            }\n        }\n\n        bool isUserAllowedToDisLike = true;\n\n        if (!isUserLikedTheVideo) {\n            for (uint256 i = 0; i < videos[id].likes.length; i++) {\n                if (videos[id].likes[i] == msg.sender) {\n                    isUserAllowedToDisLike = false;\n                    break;\n                }\n            }\n        }\n\n        if (isUserAllowedToDisLike) {\n            videos[id].dislikes.push(msg.sender);\n        }\n\n        return videos[id];\n    }\n}\n",
  "sourcePath": "C:\\Users\\cocsa\\OneDrive\\Desktop\\Dev Folder\\BlockChain\\youtube_clone\\contracts\\Youtube.sol",
  "compiler": {
    "name": "solc",
    "version": "0.8.16+commit.07a7930e.Emscripten.clang"
  },
  "schemaVersion": "3.4.9",
  "updatedAt": "2022-09-19T09:24:54.435Z",
  "networkType": "ethereum",
  "devdoc": {
    "kind": "dev",
    "methods": {},
    "version": 1
  },
  "userdoc": {
    "kind": "user",
    "methods": {},
    "version": 1
  }
}